:100382000A3D3D3D3D3D3D3D3D3D3D3D3D3D3D3DCE
:100392003D3D3D3D3D3D3D3D3D3D3D3D3D3D3D3D8B
:1003A2003D3D3D3D3D3D3D3D3D3D3D3D3D3D3D3D7B
:1003B2003D3D3D3D3D3D3D3D0A003D3D3D3D3D3DDB
:1003C2003D3D3D3D3D3D3D3D3D3D3D3D3D2020537F
:1003D2006932345231205278205445535420203D02
:1003E2003D3D3D3D3D3D3D3D3D3D3D3D3D3D0A00AB
:1003F2003D3D3D3D3D3D3D3D3D3D3D3D3D3D3D3D2B
:100402003D3D3D2020202020202020202041434B24
:1004120020202020202020203D3D3D3D3D3D3D3DF2
:100422003D3D3D3D3D3D3D0A003D3D3D3D3D3D3D6A
:100432003D3D3D3D3D3D3D3D3D3D3D3D3D3D3D3DEA
:100442003D3D3D3D3D3D3D3D3D3D3D3D3D3D3D3DDA
:100452003D3D3D3D3D3D3D3D3D3D3D3D3D3D3D3DCA
:100462000A005265636569766520446174613A0ADF
:10047200003D3D3D3D3D3D3D3D3D3D3D3D3D3D2004
:10048200232564203D3D3D3D3D3D3D3D3D3D3D3DC2
:100492003D3D0A00256420000A000A3D3D3D3D3DE8
:1004A2003D3D3D3D3D3D3D3D3D3D3D3D3D3D3D3D7A
:1004B2003D3D3D3D3D3D3D3D3D3D3D0A0A000A0A73
:0304C2000A0A0A19
:0A08E10001B90001BA00C112C111F3
:1004C500E4F5631208C6E4F56474232564F8E4F6DC
:1004D5000564E564B420F27BFF7A03798212008813
:1004E5007BFF7A0379BC1200887BFF7A0379F212CD
:1004F50000887BFF7A04792B1200881207A22095C9
:10050500FD7F071208D48F203006187B007A00790A
:10051500237569207F611207D6AD207F2712088ECB
:10052500756301E563B401D37F0112072FE4F56319
:100535007BFF7A0479641200887BFF7A04797375EE
:1005450068008523691200887564017BFF7A047948
:100555009674232564F8E6756800F569120088E548
:100565006475F00A84E5F070097BFF7A04799A12C4
:1005750000880564E564C3942040D07BFF7A047944
:070585009C12008802050032
:1008B500758780759840758920758DFAD28ED2AC72
:0108C5002210
:030023000208369A
:10083600C0E0C0D075D00830991BC29979B9E77865
:10084600BA66600F18E606543F2479F8E6F599C2B1
:0A085600128002C211D0D0D0E032AF
:10086000201223201105D2118F9922C2AC78BAE64A
:1008700006543F2479F8A60779BAE778B966543F59
:070880007002D212D2AC227B
:10089F00AE07BE0A082012FD7F0D1208602012FD60
:0608AF00AF0612086022F2
:0E08C6007F0112072F1208EC1208B5D2AF22E4
:0908EC00C290D291C292D2952271
:10000300E4FEEF339293EF25E0FFD292A294E43320
:080013004207C2920EBE08EA8A
:01001B0022C2
:0708870012088E7D407F2561
:10088E00C291120003AC07AF05120003D291AF0460
:01089E002237
:0C08D400C291120003E4FF120003D29155
:0108E00022F5
:0607D6008B668A6789684A
:1007DC00C291120003AD07E4FCECC395695017E419
:1007EC00FF120003AB66AA67A9688C82758300EFC1
:0A07FC001205B90C80E3D291AF059D
:0108060022CF
:060807008B668A67896818
:10080D00C291120003AD07E4FCECC395695015AB22
:10081D0066AA67A9688C8275830012058CFF120089
:08082D00030C80E5D291AF0538
:0108350022A0
:1007A200C2907BFF7A0479C07569057F2A12080717
:1007B2007D017F2112088E7F221208877D207F31E2
:1007C20012088E7D077F2612088E7D2F7F20120849
:0407D2008ED2902211
:1006D9008B108A118912C290E4FD7FE112088E7B8A
:1006E900FF7A0479C07569057F30120807AB10AA33
:1006F90011A9127569207FA01208077D037F2312B3
:10070900088EE4FD7F2112088E0D7F2212088E1DAE
:100719007F241208877D077F2612088E7D5E7F2041
:0607290012088ED290229E
:02072F008F65D4
:10073100E4F566E566C3956550300566B2A0B2A1E1
:10074100B2B2B2B3B2B4B2A5B2A6B2A712076C12DA
:10075100076C12076C12076CB2A7B2A6B2A5B2B4AD
:0A076100B2B3B2B2B2A1B2A080C9D7
:01076B00226B
:10076C00E4F56AF569F568F567E47F887E13FDFCAE
:10077C00AB6AAA69A968A867C31205DB5017E56ABA
:10078C002401F56AE43569F569E43568F568E43502
:05079C0067F56780D441
:0107A1002235
:0300000002064DA8
:0C064D00787FE4F6D8FD7581BA020694AF
:10058C00BB010CE58229F582E5833AF583E0225024
:10059C0006E92582F8E622BBFE06E92582F8E2226E
:0D05AC00E58229F582E5833AF583E4932288
:1005B900F8BB010DE58229F582E5833AF583E8F078
:1005C900225006E92582C8F622BBFE05E92582C824
:0205D900F2220C
:1005DB00EB9FF5F0EA9E42F0E99D42F0E89C45F076
:0105EB0022ED
:10002600E5742468F8E60574227865300F0278686E
:10003600E475F0011206170205EC2008EB7F2ED2BC
:10004600088018EF540F2490D43440D4FF300C0BA2
:10005600EF24BFB41A0050032461FFE57560021552
:10006600750578E57870020577300F0D7865E475CB
:10007600F001120617EF02060502089F7403D20F5D
:100086008003E4C20FF5748B658A668967E4F575AB
:10009600F577F578E57560077F2012006180F575C4
:1000A60076FFC209C208C20AC20BC20DC20EC21036
:1000B60012002FFF700D300F057F00120072AF780F
:1000C600AE7722B4255FC2D5C20C12002FFF24D012
:1000D600B40A00501A75F00A787530D50508B6FFCF
:1000E6000106C6A426F620D5047002D20B80D924B8
:1000F600CFB41A00EF5004C2E5D20C020272D20944
:1001060080C6D20880C0D20A80BCD2D580BAD20DB1
:1001160080B47F20120061200A077401B575004083
:10012600F1120026FF12006102009AD210D20E8050
:1001360095120026FB120026FA120026F94A4B7089
:100146000679437A037BFF200A2EE575602A7E0036
:100156008E8275830012058C60060EEE657670F051
:10016600C2D5EBC0E0EAC0E0E9C0E0EE1202B9D0C9
:10017600E0F9D0E0FAD0E0FB1205ECFF60AAEBC094
:10018600E0EAC0E0E9C0E0120061D0E02401F9D065
:10019600E03400FAD0E0FBE5760460DCD576D98061
:1001A600877BFF7A0279B5D20A809C791080027922
:1001B60008C20EC2108008D2D5790A8004790AC214
:1001C600D5E576047002F576E4FAFDFEFF12002608
:1001D600FC7B08200913120026FD7B1030080A124A
:1001E6000026FE120026FF7B20EC3382D592D550E6
:1001F60013C3E43008069FFFE49EFEE42009039D36
:10020600FDE49CFCE4CBF8C209EC700CCFCECDCC5F
:10021600E824F8F870F38017C3EF33FFEE33FEEDF2
:1002260033FDEC33FCEB33FB994002FB0FD8E9EBD3
:10023600300905F8D0E0C448B209C0E00AEC4D4EDA
:100246004F78207B0070C2EAB5760040BCC0E01251
:1002560002BBD0F0D0E0200904C4C0E0C4B209C09B
:10026600F012004AD0F0D5F0EB02009A12062701F0
:10027600375301B15801084C01044201B54F01BD85
:0F0286004401BD49011D4301C35501A74601A70E
:100295004501A747036350010C2D01102E01332B97
:1002A500011423013120034C2A00CC480000012B06
:1002B5003F3F3F00790AA2D5200B14300D09B91034
:1002C500020404B9080104A2D5200E02500104203D
:1002D5000A68920AB575005034C0E07F20300B19CA
:1002E5007F30A20A720E720D500F120312C20AC29B
:1002F5000EC20DC2107F30800F300D03E9C0E01231
:100305000061300D03D0E0F9D0E0B575CC300D17A4
:100315007F30B9100C1200617F58300C077F788050
:1003250003B90803120061300A057F2D0200617FC1
:10033500202010F87F2B200EF322920A80CF286E02
:10034500756C6C2900D2091200263009F8C20978AB
:100355007530D50108F60200CC2D504349581200DE
:10036500262403B405004001E490035E9312005275
:0D037500743A120052D20B7575040201B1EA
:100659000204C5E493A3F8E493A34003F68001F2EE
:1006690008DFF48029E493A3F85407240CC8C333A2
:10067900C4540F4420C8834004F456800146F6DF71
:10068900E4800B01020408102040809008E1E47E18
:10069900019360BCA3FF543F30E509541FFEE49366
:1006A900A360010ECF54C025E060A840B8E493A32D
:1006B900FAE493A3F8E493A3C8C582C8CAC583CA58
:1006C900F0A3C8C582C8CAC583CADFE9DEE780BE10
:0108EB00000C
:1005EC00BB010689828A83E0225002E722BBFE020D
:0905FC00E32289828A83E4932240
:10060500BB010689828A83F0225002F722BBFE01D4
:02061500F322CE
:10061700FAE6FB0808E6F925F0F618E6CA3AF622E4
:10062700D083D082F8E4937012740193700DA3A362
:1006370093F8740193F5828883E473740293686076
:06064700EFA3A3A380DF76
:00000001FF
