:10046D000A3D3D3D3D3D3D3D3D3D3D3D3D3D3D3DE2
:10047D003D3D3D3D3D3D3D3D3D3D3D3D3D3D3D3D9F
:10048D003D3D3D3D3D3D3D3D3D3D3D3D3D3D3D3D8F
:10049D003D3D3D3D3D3D3D3D0A003D3D3D3D3D3DEF
:1004AD003D3D3D3D3D3D3D3D3D3D3D3D3D20205393
:1004BD006932345231205478205445535420203D14
:1004CD003D3D3D3D3D3D3D3D3D3D3D3D3D3D0A00BF
:1004DD003D3D3D3D3D3D3D3D3D3D3D3D3D3D3D3D3F
:1004ED003D3D3D2020202020202020202041434B39
:1004FD0020202020202020203D3D3D3D3D3D3D3D07
:10050D003D3D3D3D3D3D3D0A003D3D3D3D3D3D3D7E
:10051D003D3D3D3D3D3D3D3D3D3D3D3D3D3D3D3DFE
:10052D003D3D3D3D3D3D3D3D3D3D3D3D3D3D3D3DEE
:10053D003D3D3D3D3D3D3D3D3D3D3D3D3D3D3D3DDE
:10054D000A005458446174613A0A003D3D23256404
:10055D003D3D23524643483D25640A002564200055
:0D056D000A000A3D3D0A0A000A0A0A0A0AAD
:10085C00015500015600C112C1110424001E507B29
:10035F00E4F508F50AF5231208997BFF7A04796D05
:10036F001200657BFF7A0479A71200657BFF7A0480
:10037F0079DD1200657BFF7A057916120065750924
:10038F000174282509F8A6090509E509B420F27BAF
:10039F00007A0079281206C72095FDE4FD7F071229
:1003AF0008328F2020050302043BAD207F2712085F
:1003BF00327F0112071E7BFF7A05794F1200657B92
:1003CF00FF7A057958750E0085280F74242523F8B8
:1003DF00E6751000F5111200657509017BFF7A05AE
:1003EF00796974282509F8E6750E00F50F12006576
:1003FF00E50975F00A84E5F070097BFF7A05796DE0
:10040F001200650509E509C3942040D07BFF7A05EA
:10041F00796F1200650523E523B40403E4F5231275
:10042F000827D290AF0805088F28801E30041BAD17
:10043F00207F271208320523E523B40403E4F523B4
:10044F001208277FE1120832D290E4F509E509C3BB
:0E045F00940F400302039E120795050980EFDB
:0F087D00758780759840758920758DFAD28E2207
:0808AD008F993099FDC29922D8
:10086D00AE07BE0A057F0D1208ADAF061208AD2208
:0B08990012087D7F0112071E0208A458
:0908A400C290D291C292D29522B9
:10084300E4FEEF339293EF25E0FFD292A294E433D8
:080853004207C2920EBE08EA42
:01085B00227A
:0B082700C29074242523F8E6FD7F2515
:10083200C291120843AC07AF05120843D291AF042C
:010842002293
:0C088C00C291120843E4FF120843D2910D
:01089800223D
:0607CB008B498A4A894BAC
:1007D100C291120843AD07E4FCECC3954C5017E4F9
:1007E100FF120843AB49AA4AA94B8C82758300EFDB
:0A07F1001205A70C80E3D291AF05BA
:0107FB0022DB
:0B075B007BFF7A0579757512057F2A77
:060766008B0F8A108911BF
:10076C00C291120843AD07E4FCECC395125015ABD3
:10077C000FAA10A9118C8275830012057AFF12083A
:08078C00430C80E5D291AF059A
:010794002242
:1007FC00C29012075B7D017F221208327D407F255B
:10080C001208327D207F311208327D077F261208B4
:0B081C00327D0F7F20120832D29022A4
:1006C7008B0B8A0C890DC2907BFF7A0579757512A1
:1006D700057F3012076612075BAB0BAA0CA90D75D5
:1006E70012207FA01207667D037F231208327D0147
:1006F7007F221208327D0C7F241208321208297DCE
:10070700077F261208327D097F241208327D4E7F2B
:0707170020120832D29022EB
:02071E008F0B3F
:10072000E4F50CE50CC3950B5030050CB2A0B2A15A
:10073000B2B2B2B3B2B4B2A5B2A6B2A712079512C2
:100740000795120795120795B2A7B2A6B2A5B2B443
:0A075000B2B3B2B2B2A1B2A080C9E8
:01075A00227C
:10079500E4F510F50FF50EF50DE47F887E13FDFCED
:1007A500AB10AA0FA90EA80DC31205C95017E51065
:1007B5002401F510E4350FF50FE4350EF50EE4359B
:0507C5000DF50D80D4CC
:0107CA00220C
:0300000002063BBA
:0C063B00787FE4F6D8FD75815602068237
:10057A00BB010CE58229F582E5833AF583E0225036
:10058A0006E92582F8E622BBFE06E92582F8E22280
:0D059A00E58229F582E5833AF583E493229A
:1005A700F8BB010DE58229F582E5833AF583E8F08A
:1005B700225006E92582C8F622BBFE05E92582C836
:0205C700F2221E
:1005C900EB9FF5F0EA9E42F0E99D42F0E89C45F088
:0105D90022FF
:10000300E51A240EF8E6051A22780B300F02780E53
:10001300E475F0011206050205DA2008EB7F2ED203
:10002300088018EF540F2490D43440D4FF300C0BC5
:10003300EF24BFB41A0050032461FFE51B600215CF
:100043001B051EE51E7002051D300F0D780BE475B0
:10005300F001120605EF0205F302086D7403D20FD7
:100063008003E4C20FF51A8B0B8A0C890DE4F51B90
:10007300F51DF51EE51B60077F2012003E80F57518
:100083001CFFC209C208C20AC20BC20DC20EC210B3
:1000930012000CFF700D300F057F0012004FAF1ED2
:1000A300AE1D22B4255FC2D5C20C12000CFF24D0B2
:1000B300B40A00501A75F00A781B30D50508B6FF4C
:1000C3000106C6A426F620D5047002D20B80D924DB
:1000D300CFB41A00EF5004C2E5D20C02024FD2098A
:1000E30080C6D20880C0D20A80BCD2D580BAD20DD5
:1000F30080B47F2012003E200A077401B51B004024
:10010300F1120003FF12003E020077D210D20E80DC
:1001130095120003FB120003FA120003F94A4B7015
:100123000679207A037BFF200A2EE51B602A7E00D6
:100133008E8275830012057A60060EEE651C70F0E0
:10014300C2D5EBC0E0EAC0E0E9C0E0EE120296D00F
:10015300E0F9D0E0FAD0E0FB1205DAFF60AAEBC0C9
:10016300E0EAC0E0E9C0E012003ED0E02401F9D0AB
:10017300E03400FAD0E0FBE51C0460DCD51CD98038
:10018300877BFF7A027992D20A809C791080027968
:1001930008C20EC2108008D2D5790A8004790AC237
:1001A300D5E51C047002F51CE4FAFDFEFF12000302
:1001B300FC7B08200913120003FD7B1030080A1290
:1001C3000003FE120003FF7B20EC3382D592D5504F
:1001D30013C3E43008069FFFE49EFEE42009039D59
:1001E300FDE49CFCE4CBF8C209EC700CCFCECDCC83
:1001F300E824F8F870F38017C3EF33FFEE33FEED16
:1002030033FDEC33FCEB33FB994002FB0FD8E9EBF6
:10021300300905F8D0E0C448B209C0E00AEC4D4EFD
:100223004F78207B0070C2EAB51C0040BCC0E012CE
:100233000298D0F0D0E0200904C4C0E0C4B209C0E1
:10024300F0120027D0F0D5F0EB020077120615016B
:100253001453018E5800E54C00E14201924F019A7C
:0F02630044019A4900FA4301A0550184460184E1
:100272004501844703405000E92D00ED2E01102B6B
:1002820000F123010E2003292A00A94800000108D9
:100292003F3F3F00790AA2D5200B14300D09B91057
:1002A200020404B9080104A2D5200E025001042060
:1002B2000A68920AB51B005034C0E07F20300B1947
:1002C2007F30A20A720E720D500F1202EFC20AC2E2
:1002D2000EC20DC2107F30800F300D03E9C0E01254
:1002E200003E300D03D0E0F9D0E0B51BCC300D1745
:1002F2007F30B9100C12003E7F58300C077F788097
:1003020003B9080312003E300A057F2D02003E7F2A
:10031200202010F87F2B200EF322920A80CF286E25
:10032200756C6C2900D2091200033009F8C20978F1
:100332001B30D50108F60200A92D5043495812007E
:10034200032403B405004001E490033B9312002F01
:0D035200743A12002FD20B751B0402018EAD
:1006470002035FE493A3F8E493A34003F68001F267
:1006570008DFF48029E493A3F85407240CC8C333B4
:10066700C4540F4420C8834004F456800146F6DF83
:10067700E4800B010204081020408090085CE47EAF
:10068700019360BCA3FF543F30E509541FFEE49378
:10069700A360010ECF54C025E060A840B8E493A33F
:1006A700FAE493A3F8E493A3C8C582C8CAC583CA6A
:1006B700F0A3C8C582C8CAC583CADFE9DEE780BE22
:01086C00008B
:1005DA00BB010689828A83E0225002E722BBFE021F
:0905EA00E32289828A83E4932252
:1005F300BB010689828A83F0225002F722BBFE01E7
:02060300F322E0
:10060500FAE6FB0808E6F925F0F618E6CA3AF622F6
:10061500D083D082F8E4937012740193700DA3A374
:1006250093F8740193F5828883E473740293686088
:06063500EFA3A3A380DF88
:00000001FF
