:10035F000A3D3D3D3D3D3D3D3D3D3D3D3D3D3D3DF1
:10036F003D3D3D3D3D3D3D3D3D3D3D3D3D3D3D3DAE
:10037F003D3D3D3D3D3D3D3D3D3D3D3D3D3D3D3D9E
:10038F003D3D3D3D3D3D3D3D0A003D3D3D3D3D3DFE
:10039F003D3D3D3D3D3D3D3D3D3D3D3D3D202053A2
:1003AF006932345231205478205445535420203D23
:1003BF003D3D3D3D3D3D3D3D3D3D3D3D3D3D0A00CE
:1003CF003D3D3D3D3D3D3D3D3D3D3D3D3D3D3D3D4E
:1003DF003D3D3D20202020202020204E4F20414316
:1003EF004B202020202020203D3D3D3D3D3D3D3DEB
:1003FF003D3D3D3D3D3D3D0A003D3D3D3D3D3D3D8E
:10040F003D3D3D3D3D3D3D3D3D3D3D3D3D3D3D3D0D
:10041F003D3D3D3D3D3D3D3D3D3D3D3D3D3D3D3DFD
:10042F003D3D3D3D3D3D3D3D3D3D3D3D3D3D3D3DED
:10043F000A000A5472616E736D69746564204461B9
:10044F0074613A0A003D3D3D3D3D3D3D3D3D3D3DE5
:10045F003D3D3D3D3D3D3D3D3D20232564203D3D02
:10046F003D3D3D3D3D3D3D3D3D3D3D3D3D3D3D3DAD
:10047F003D0A00256420000A000A3D3D3D3D3D3DFB
:10048F003D3D3D3D3D3D3D3D3D3D3D3D3D3D3D3D8D
:10049F003D3D3D3D3D3D3D3D3D3D3D3D3D3D3D3D7D
:0D04AF003D3D3D3D3D0A0A00AAAAAAAA0053
:0A08A900015000015100C112C111FD
:10085C00C2907BFF7A0479B775110522C2911208F8
:06086C002BAD07E4FC22A5
:1004BC00E4F50812089E7A03795F12057F7A0379B6
:1004CC00991200657BFF7A0379CF1200657BFF7A66
:1004DC0004790812006575090174232509F8A60929
:1004EC000509E509B420F2AF0805088F237B007AD3
:1004FC000079231207382095FDE4FD7F0712084B85
:10050C008F20300557AD207F2712084B7A04794194
:10051C0012057F7A047954750D0085230E1200653F
:10052C007509017BFF7A04798274232509F8E67535
:10053C000D00F50E120065E50975F00A84E5F07002
:10054C00097BFF7A0479861200650509E509C394D5
:10055C002040D07BFF7A047988120065E4F50912FB
:10056C00077A0509E509C3940A40F47F011206D401
:03057C000204F383
:08057F007BFF1200657BFF22E7
:0F088200758780759840758920758DFAD28E2202
:0808BD008F993099FDC29922C8
:10087200AE07BE0A057F0D1208BDAF061208BD22E3
:0B089E001208827F011206D40208B489
:0908B400C290D291C292D29522A9
:10082B00E4FEEF339293EF25E0FFD292A294E433F0
:08083B004207C2920EBE08EA5A
:010843002292
:0708440012084B7D407F25E7
:10084B00C29112082BAC07AF0512082BD291AF0443
:01085B00227A
:0C089100C29112082BE4FF12082BD29138
:01089D002238
:0607B0008B448A458946D6
:1007B600120868ECC395475017E4FF12082BAB44A8
:1007C600AA45A9468C82758300EF1205B40C80E316
:0407D600D291AF0508
:0107DA0022FC
:0607DB008B0E8A0F89104D
:1007E100120868ECC395115015AB0EAA0FA9108C15
:1007F10082758300120587FF12082B0C80E5D291C8
:02080100AF0541
:0108030022D2
:1008040012085C7F2A1207DB7D017F221208447DD7
:10081400207F3112084B7D277F2612084B7D0F7FE6
:070824002012084BD29022C4
:100738008B0A8A0B890C12085C7F301207DB7D015B
:100748007F3D12084BAB0AAA0BA90C7511207FB08C
:100758001207DB7D037F2312084B7D1F7F241208BD
:10076800447D277F2612084B7D0E7F2012084BD22E
:020778009022CD
:0206D4008F0A8B
:1006D600E4F50BE50BC3950A5057050BB2A01207BC
:1006E6007AB2A112077AB2A212077AB2A312077AD5
:1006F600B2A412077AB2A512077AB2A612077AB284
:10070600A712077AB2A712077AB2A612077AB2A57B
:1007160012077AB2A412077AB2A312077AB2A21209
:10072600077AB2A112077AB2A012077A12077A8064
:01073600A220
:01073700229F
:10077A00E4F50FF50EF50DF50CE47F887E13FDFC0C
:10078A00AB0FAA0EA90DA80CC31205D65017E50F78
:10079A002401F50FE4350EF50EE4350DF50DE435BB
:0507AA000CF50C80D4E9
:0107AF002227
:03000000020648AD
:0C064800787FE4F6D8FD75815102068F22
:10058700BB010CE58229F582E5833AF583E0225029
:1005970006E92582F8E622BBFE06E92582F8E22273
:0D05A700E58229F582E5833AF583E493228D
:1005B400F8BB010DE58229F582E5833AF583E8F07D
:1005C400225006E92582C8F622BBFE05E92582C829
:0205D400F22211
:1005D600EB9FF5F0EA9E42F0E99D42F0E89C45F07B
:0105E60022F2
:10000300E519240DF8E6051922780A300F02780D58
:10001300E475F0011206120205E72008EB7F2ED2E9
:10002300088018EF540F2490D43440D4FF300C0BC5
:10003300EF24BFB41A0050032461FFE51A600215D0
:100043001A051DE51D7002051C300F0D780AE475B5
:10005300F001120612EF0206000208727403D20FB7
:100063008003E4C20FF5198B0A8A0B890CE4F51A95
:10007300F51CF51DE51A60077F2012003E80F5751B
:100083001BFFC209C208C20AC20BC20DC20EC210B4
:1000930012000CFF700D300F057F0012004FAF1DD3
:1000A300AE1C22B4255FC2D5C20C12000CFF24D0B3
:1000B300B40A00501A75F00A781A30D50508B6FF4D
:1000C3000106C6A426F620D5047002D20B80D924DB
:1000D300CFB41A00EF5004C2E5D20C02024FD2098A
:1000E30080C6D20880C0D20A80BCD2D580BAD20DD5
:1000F30080B47F2012003E200A077401B51A004025
:10010300F1120003FF12003E020077D210D20E80DC
:1001130095120003FB120003FA120003F94A4B7015
:100123000679207A037BFF200A2EE51A602A7E00D7
:100133008E8275830012058760060EEE651B70F0D4
:10014300C2D5EBC0E0EAC0E0E9C0E0EE120296D00F
:10015300E0F9D0E0FAD0E0FB1205E7FF60AAEBC0BC
:10016300E0EAC0E0E9C0E012003ED0E02401F9D0AB
:10017300E03400FAD0E0FBE51B0460DCD51BD9803A
:10018300877BFF7A027992D20A809C791080027968
:1001930008C20EC2108008D2D5790A8004790AC237
:1001A300D5E51B047002F51BE4FAFDFEFF12000304
:1001B300FC7B08200913120003FD7B1030080A1290
:1001C3000003FE120003FF7B20EC3382D592D5504F
:1001D30013C3E43008069FFFE49EFEE42009039D59
:1001E300FDE49CFCE4CBF8C209EC700CCFCECDCC83
:1001F300E824F8F870F38017C3EF33FFEE33FEED16
:1002030033FDEC33FCEB33FB994002FB0FD8E9EBF6
:10021300300905F8D0E0C448B209C0E00AEC4D4EFD
:100223004F78207B0070C2EAB51B0040BCC0E012CF
:100233000298D0F0D0E0200904C4C0E0C4B209C0E1
:10024300F0120027D0F0D5F0EB020077120622015E
:100253001453018E5800E54C00E14201924F019A7C
:0F02630044019A4900FA4301A0550184460184E1
:100272004501844703405000E92D00ED2E01102B6B
:1002820000F123010E2003292A00A94800000108D9
:100292003F3F3F00790AA2D5200B14300D09B91057
:1002A200020404B9080104A2D5200E025001042060
:1002B2000A68920AB51A005034C0E07F20300B1948
:1002C2007F30A20A720E720D500F1202EFC20AC2E2
:1002D2000EC20DC2107F30800F300D03E9C0E01254
:1002E200003E300D03D0E0F9D0E0B51ACC300D1746
:1002F2007F30B9100C12003E7F58300C077F788097
:1003020003B9080312003E300A057F2D02003E7F2A
:10031200202010F87F2B200EF322920A80CF286E25
:10032200756C6C2900D2091200033009F8C20978F1
:100332001A30D50108F60200A92D5043495812007F
:10034200032403B405004001E490033B9312002F01
:0D035200743A12002FD20B751A0402018EAE
:100654000204BCE493A3F8E493A34003F68001F2FC
:1006640008DFF48029E493A3F85407240CC8C333A7
:10067400C4540F4420C8834004F456800146F6DF76
:10068400E4800B01020408102040809008A9E47E55
:10069400019360BCA3FF543F30E509541FFEE4936B
:1006A400A360010ECF54C025E060A840B8E493A332
:1006B400FAE493A3F8E493A3C8C582C8CAC583CA5D
:1006C400F0A3C8C582C8CAC583CADFE9DEE780BE15
:0108B3000044
:1005E700BB010689828A83E0225002E722BBFE0212
:0905F700E32289828A83E4932245
:10060000BB010689828A83F0225002F722BBFE01D9
:02061000F322D3
:10061200FAE6FB0808E6F925F0F618E6CA3AF622E9
:10062200D083D082F8E4937012740193700DA3A367
:1006320093F8740193F5828883E47374029368607B
:06064200EFA3A3A380DF7B
:00000001FF
