:1004A7000A3D3D3D3D3D3D3D3D3D3D3D3D3D3D3DA8
:1004B7003D3D3D3D3D3D3D3D3D3D3D3D3D3D3D3D65
:1004C7003D3D3D3D3D3D3D3D3D3D3D3D3D3D3D3D55
:1004D7003D3D3D3D3D3D3D3D0A003D3D3D3D3D3DB5
:1004E7003D3D3D3D3D3D3D3D3D3D3D3D3D20205359
:1004F7006932345231205278205445535420203DDC
:100507003D3D3D3D3D3D3D3D3D3D3D3D3D3D0A0084
:100517003D3D3D3D3D3D3D3D3D3D3D3D3D3D3D3D04
:100527003D3D3D2020202020202020202041434BFE
:1005370020202020202020203D3D3D3D3D3D3D3DCC
:100547003D3D3D3D3D3D3D0A003D3D3D3D3D3D3D44
:100557003D3D3D3D3D3D3D3D3D3D3D3D3D3D3D3DC4
:100567003D3D3D3D3D3D3D3D3D3D3D3D3D3D3D3DB4
:100577003D3D3D3D3D3D3D3D3D3D3D3D3D3D3D3DA4
:100587000A006572726F720A0052582044617461E2
:100597003A0A003D3D2325645F52462043483D25E6
:1005A700640A00256420000A000A3D3D0A0A000A81
:0405B7000A0A0A0A18
:1009000001C00001C100C112C1110424001E507BAE
:10038200E4F568F569F523F56A120911E4F56B7471
:1003920028256BF8E4F6056BE56BB420F27BFF7A57
:1003A2000479A71200887BFF7A0479E11200887B26
:1003B200FF7A0579171200887BFF7A0579501200BF
:1003C200881207A23095320569E56970020568D383
:1003D20094E8E568940340ECE4F568F5690523E5E3
:1003E20023B40403E4F523C290120003E4FD7FE288
:1003F20012000CD290B29680CB7F0712091F8F2079
:100402003006277B007A0079287570207F611208F8
:1004120036AD207F2712000C756A01E52964016060
:10042200097BFF7A057989120088E56A6401709177
:100432007F01120765E4F56A7BFF7A057990120065
:10044200887BFF7A05799A756F0085287074242558
:1004520023F8E6757100F572120088756B017BFF57
:100462007A0579AA7428256BF8E6756F00F5701283
:100472000088E56B75F00A84E5F070097BFF7A0568
:1004820079AE120088056BE56BC3942040D07BFFE8
:100492007A0579B01200880523E5236404600261BD
:0504A200C3F52361C356
:1008EF00758780759840758920758DFAD28ED2AC38
:0108FF0022D6
:030023000208963A
:10089600C0E0C0D075D00830991BC29979C0E778FE
:1008A600C166600F18E606543F2480F8E6F599C243
:0A08B600128002C211D0D0D0E0324F
:1007D900201223201105D2118F9922C2AC78C1E6CB
:1007E90006543F2480F8A60779C1E778C066543FCC
:0707F9007002D212D2AC2203
:1008D900AE07BE0A082012FD7F0D1207D92012FDAE
:0608E900AF061207D92240
:0E0911007F0112076512092C1208EFD2AF22E7
:09092C00C290D291C292D2952230
:1008C000E4FEEF339293EF25E0FFD292A294E4335B
:0808D0004207C2920EBE08EAC5
:0108D80022FD
:0900030074242523F8E6FD7F2595
:10000C00C2911208C0AC07AF051208C0D291AF0460
:01001C0022C1
:0C091F00C2911208C0E4FF1208C0D2917F
:01092B0022A9
:060836008B6D8A6E896FD4
:10083C00C2911208C0AD07E4FCECC395705017E4EC
:10084C00FF1208C0AB6DAA6EA96F8C82758300EF86
:0A085C001205E80C80E3D291AF050D
:01086600226F
:060867008B6D8A6E896FA3
:10086D00C2911208C0AD07E4FCECC395705015ABF6
:10087D006DAA6EA96F8C827583001205BBFF1208DD
:08088D00C00C80E5D291AF051B
:010895002240
:1007A200C2907BFF7A0579B67570057F2A120867B9
:1007B2007D017F2112000C7F2212000C1200037DAA
:1007C200207F3112000C7D077F2612000C7D2F7FC7
:0707D2002012000CD290225E
:100708008B108A118912C290E4FD7FE112000C7BE4
:10071800FF7A0579B67570057F30120867AB10AAA5
:1007280011A9127570207FA01208677D037F23121C
:10073800000CE4FD7F2112000C0D7F2212000C1D1D
:100748007F2412000C7D407F2512000C7D077F2638
:0D07580012000C7D5E7F2012000CD290225A
:020765008F6C97
:10076700E4F56DE56DC3956C5030056DB2A0B2A18F
:10077700B2B2B2B3B2B4B2A5B2A6B2A7120800120F
:100787000800120800120800B2A7B2A6B2A5B2B4B8
:0A079700B2B3B2B2B2A1B2A080C9A1
:0107A1002235
:10080000E4F571F570F56FF56EE47F887E13FDFCFD
:10081000AB71AA70A96FA86EC312060A5017E571D2
:100820002401F571E43570F570E4356FF56FE4354A
:050830006EF56E80D49E
:0108350022A0
:0300000002067C79
:0C067C00787FE4F6D8FD7581C10206C34A
:1005BB00BB010CE58229F582E5833AF583E02250F5
:1005CB0006E92582F8E622BBFE06E92582F8E2223F
:0D05DB00E58229F582E5833AF583E4932259
:1005E800F8BB010DE58229F582E5833AF583E8F049
:1005F800225006E92582C8F622BBFE05E92582C8F5
:02060800F222DC
:10060A00EB9FF5F0EA9E42F0E99D42F0E89C45F046
:01061A0022BD
:10002600E57B246FF8E6057B22786C300F02786F4B
:10003600E475F00112064602061B2008EB7F2ED25D
:10004600088018EF540F2490D43440D4FF300C0BA2
:10005600EF24BFB41A0050032461FFE57C6002154B
:100066007C057FE57F7002057E300F0D786CE475A8
:10007600F001120646EF0206340208D97403D20FC5
:100086008003E4C20FF57B8B6C8A6D896EE4F57C88
:10009600F57EF57FE57C60077F2012006180F575AF
:1000A6007DFFC209C208C20AC20BC20DC20EC2102F
:1000B60012002FFF700D300F057F00120072AF7F08
:1000C600AE7E22B4255FC2D5C20C12002FFF24D00B
:1000D600B40A00501A75F00A787C30D50508B6FFC8
:1000E6000106C6A426F620D5047002D20B80D924B8
:1000F600CFB41A00EF5004C2E5D20C020272D20944
:1001060080C6D20880C0D20A80BCD2D580BAD20DB1
:1001160080B47F20120061200A077401B57C00407C
:10012600F1120026FF12006102009AD210D20E8050
:1001360095120026FB120026FA120026F94A4B7089
:100146000679437A037BFF200A2EE57C602A7E002F
:100156008E827583001205BB60060EEE657D70F01B
:10016600C2D5EBC0E0EAC0E0E9C0E0EE1202B9D0C9
:10017600E0F9D0E0FAD0E0FB12061BFF60AAEBC064
:10018600E0EAC0E0E9C0E0120061D0E02401F9D065
:10019600E03400FAD0E0FBE57D0460DCD57DD98053
:1001A600877BFF7A0279B5D20A809C791080027922
:1001B60008C20EC2108008D2D5790A8004790AC214
:1001C600D5E57D047002F57DE4FAFDFEFF120026FA
:1001D600FC7B08200913120026FD7B1030080A124A
:1001E6000026FE120026FF7B20EC3382D592D550E6
:1001F60013C3E43008069FFFE49EFEE42009039D36
:10020600FDE49CFCE4CBF8C209EC700CCFCECDCC5F
:10021600E824F8F870F38017C3EF33FFEE33FEEDF2
:1002260033FDEC33FCEB33FB994002FB0FD8E9EBD3
:10023600300905F8D0E0C448B209C0E00AEC4D4EDA
:100246004F78207B0070C2EAB57D0040BCC0E0124A
:1002560002BBD0F0D0E0200904C4C0E0C4B209C09B
:10026600F012004AD0F0D5F0EB02009A12065601C1
:10027600375301B15801084C01044201B54F01BD85
:0F0286004401BD49011D4301C35501A74601A70E
:100295004501A747036350010C2D01102E01332B97
:1002A500011423013120034C2A00CC480000012B06
:1002B5003F3F3F00790AA2D5200B14300D09B91034
:1002C500020404B9080104A2D5200E02500104203D
:1002D5000A68920AB57C005034C0E07F20300B19C3
:1002E5007F30A20A720E720D500F120312C20AC29B
:1002F5000EC20DC2107F30800F300D03E9C0E01231
:100305000061300D03D0E0F9D0E0B57CCC300D179D
:100315007F30B9100C1200617F58300C077F788050
:1003250003B90803120061300A057F2D0200617FC1
:10033500202010F87F2B200EF322920A80CF286E02
:10034500756C6C2900D2091200263009F8C20978AB
:100355007C30D50108F60200CC2D504349581200D7
:10036500262403B405004001E490035E9312005275
:0D037500743A120052D20B757C040201B1E3
:10068800020382E493A3F8E493A34003F68001F203
:1006980008DFF48029E493A3F85407240CC8C33373
:1006A800C4540F4420C8834004F456800146F6DF42
:1006B800E4800B0102040810204080900900E47EC9
:1006C800019360BCA3FF543F30E509541FFEE49337
:1006D800A360010ECF54C025E060A840B8E493A3FE
:1006E800FAE493A3F8E493A3C8C582C8CAC583CA29
:1006F800F0A3C8C582C8CAC583CADFE9DEE780BEE1
:0109100000E6
:10061B00BB010689828A83E0225002E722BBFE02DD
:09062B00E32289828A83E4932210
:10063400BB010689828A83F0225002F722BBFE01A5
:02064400F3229F
:10064600FAE6FB0808E6F925F0F618E6CA3AF622B5
:10065600D083D082F8E4937012740193700DA3A333
:1006660093F8740193F5828883E473740293686047
:06067600EFA3A3A380DF47
:00000001FF
