:100382000A3D3D3D3D3D3D3D3D3D3D3D3D3D3D3DCE
:100392003D3D3D3D3D3D3D3D3D3D3D3D3D3D3D3D8B
:1003A2003D3D3D3D3D3D3D3D3D3D3D3D3D3D3D3D7B
:1003B2003D3D3D3D3D3D3D3D0A003D3D3D3D3D3DDB
:1003C2003D3D3D3D3D3D3D3D3D3D3D3D3D2020537F
:1003D2006932345231205278205445535420203D02
:1003E2003D3D3D3D3D3D3D3D3D3D3D3D3D3D0A00AB
:1003F2003D3D3D3D3D3D3D3D3D3D3D3D3D3D3D3D2B
:100402003D3D3D20202020202020204E4F204143F2
:100412004B202020202020203D3D3D3D3D3D3D3DC7
:100422003D3D3D3D3D3D3D0A003D3D3D3D3D3D3D6A
:100432003D3D3D3D3D3D3D3D3D3D3D3D3D3D3D3DEA
:100442003D3D3D3D3D3D3D3D3D3D3D3D3D3D3D3DDA
:100452003D3D3D3D3D3D3D3D3D3D3D3D3D3D3D3DCA
:100462000A000A52656365697665642044617461B5
:100472003A0A003D3D3D3D3D3D3D3D3D3D3D3D3D1D
:100482003D3D3D3D3D3D3D20232564203D3D3D3DDF
:100492003D3D3D3D3D3D3D3D3D3D3D3D3D3D3D3D8A
:1004A2000A00256420000A000A3D3D3D3D3D3D3DD8
:1004B2003D3D3D3D3D3D3D3D3D3D3D3D3D3D3D3D6A
:1004C2003D3D3D3D3D3D3D3D3D3D3D3D3D3D3D3D5A
:0D04D2003D3D3D3D3D0A0A00AAAAAAAA0030
:0A09280001B90001BA00C112C111AB
:1004DF00E4F563FF12087F12090DE4FF12087FE4B1
:1004EF00F56474232564F8E4F60564E564B420F23A
:1004FF007BFF7A0379821200887BFF7A0379BC1223
:10050F0000887BFF7A0379F21200887BFF7A0479E7
:10051F002B1200881207892095FD7F0712091B8F68
:10052F00203006187B007A0079237569207F6112CD
:10053F0007F5AD207F271208D5756301E563B40178
:10054F00D67F0112074CE4F5637BFF7A04796412BE
:10055F0000887BFF7A04797575680085236912001E
:10056F00887564017BFF7A0479A474232564F8E607
:10057F00756800F569120088E56475F00A84E5F086
:10058F0070097BFF7A0479A81200880564E564C3BB
:10059F00942040D07BFF7A0479AA120088020526A6
:1008FC00758780759840758920758DFAD28ED2AC2B
:01090C0022C8
:030023000208557B
:10085500C0E0C0D075D00830991BC29979B9E77846
:10086500BA66600F18E606543F2479F8E6F599C292
:0A087500128002C211D0D0D0E03290
:1008A700201223201105D2118F9922C2AC78BAE603
:1008B70006543F2479F8A60779BAE778B966543F12
:0708C7007002D212D2AC2234
:1008E600AE07BE0A082012FD7F0D1208A72012FDD2
:0608F600AF061208A72264
:0E090D007F0112074C1209331208FCD2AF22F0
:09093300C290D291C292D2952229
:10000300E4FEEF339293EF25E0FFD292A294E43320
:080013004207C2920EBE08EA8A
:01001B0022C2
:0708CE001208D57D407F25D3
:1008D500C291120003AC07AF05120003D291AF0419
:0108E50022F0
:0C091B00C291120003E4FF120003D2910D
:0109270022AD
:0607F5008B668A6789682B
:1007FB00C291120003AD07E4FCECC395695017E4FA
:10080B00FF120003AB66AA67A9688C82758300EFA1
:0A081B001205DC0C80E3D291AF055A
:0108250022B0
:060826008B668A678968F9
:10082C00C291120003AD07E4FCECC395695015AB03
:10083C0066AA67A9688C827583001205AFFF120047
:08084C00030C80E5D291AF0519
:010854002281
:10078900C2907BFF7A0479DA7569057F2A120826F7
:100799007D017F221208CE7D207F311208D57D048C
:1007A9007F3D1208D57D077F261208D57D0F7F2052
:0607B9001208D5D29022C7
:1006FC008B108A118912C290E4FD7FE11208D57B20
:10070C00FF7A0479DA7569057F30120826AB10AAD6
:10071C0011A9127569207FA01208267D037F231270
:10072C0008D57D017F221208D51D7F241208CE7DAD
:10073C00077F261208D57D5E7F201208D5D2902225
:02074C008F65B7
:10074E00E4F566E566C3956550300566B2A0B2A1C4
:10075E00B2B2B2B3B2B4B2A5B2A6B2A71207BF126A
:10076E0007BF1207BF1207BFB2A7B2A6B2A5B2B497
:0A077E00B2B3B2B2B2A1B2A080C9BA
:01078800224E
:1007BF00E4F56AF569F568F567E47F887E13FDFC5B
:1007CF00AB6AAA69A968A867C31205FE5017E56A44
:1007DF002401F56AE43569F569E43568F568E435AF
:0507EF0067F56780D4EE
:0107F40022E2
:10087F00C208EF6022D208A20892A0A20892A1A2F9
:10088F000892B2A20892B3A20892B4A20892A5A2AB
:07089F000892A6A20892A72F
:0108A600222F
:0300000002067085
:0C067000787FE4F6D8FD7581BA0206B769
:1005AF00BB010CE58229F582E5833AF583E0225001
:1005BF0006E92582F8E622BBFE06E92582F8E2224B
:0D05CF00E58229F582E5833AF583E4932265
:1005DC00F8BB010DE58229F582E5833AF583E8F055
:1005EC00225006E92582C8F622BBFE05E92582C801
:0205FC00F222E9
:1005FE00EB9FF5F0EA9E42F0E99D42F0E89C45F053
:01060E0022C9
:10002600E5742468F8E60574227865300F0278686E
:10003600E475F00112063A02060F2008EB7F2ED275
:10004600088018EF540F2490D43440D4FF300C0BA2
:10005600EF24BFB41A0050032461FFE57560021552
:10006600750578E57870020577300F0D7865E475CB
:10007600F00112063AEF0206280208E67403D20FD0
:100086008003E4C20FF5748B658A668967E4F575AB
:10009600F577F578E57560077F2012006180F575C4
:1000A60076FFC209C208C20AC20BC20DC20EC21036
:1000B60012002FFF700D300F057F00120072AF780F
:1000C600AE7722B4255FC2D5C20C12002FFF24D012
:1000D600B40A00501A75F00A787530D50508B6FFCF
:1000E6000106C6A426F620D5047002D20B80D924B8
:1000F600CFB41A00EF5004C2E5D20C020272D20944
:1001060080C6D20880C0D20A80BCD2D580BAD20DB1
:1001160080B47F20120061200A077401B575004083
:10012600F1120026FF12006102009AD210D20E8050
:1001360095120026FB120026FA120026F94A4B7089
:100146000679437A037BFF200A2EE575602A7E0036
:100156008E827583001205AF60060EEE657670F02E
:10016600C2D5EBC0E0EAC0E0E9C0E0EE1202B9D0C9
:10017600E0F9D0E0FAD0E0FB12060FFF60AAEBC070
:10018600E0EAC0E0E9C0E0120061D0E02401F9D065
:10019600E03400FAD0E0FBE5760460DCD576D98061
:1001A600877BFF7A0279B5D20A809C791080027922
:1001B60008C20EC2108008D2D5790A8004790AC214
:1001C600D5E576047002F576E4FAFDFEFF12002608
:1001D600FC7B08200913120026FD7B1030080A124A
:1001E6000026FE120026FF7B20EC3382D592D550E6
:1001F60013C3E43008069FFFE49EFEE42009039D36
:10020600FDE49CFCE4CBF8C209EC700CCFCECDCC5F
:10021600E824F8F870F38017C3EF33FFEE33FEEDF2
:1002260033FDEC33FCEB33FB994002FB0FD8E9EBD3
:10023600300905F8D0E0C448B209C0E00AEC4D4EDA
:100246004F78207B0070C2EAB5760040BCC0E01251
:1002560002BBD0F0D0E0200904C4C0E0C4B209C09B
:10026600F012004AD0F0D5F0EB02009A12064A01CD
:10027600375301B15801084C01044201B54F01BD85
:0F0286004401BD49011D4301C35501A74601A70E
:100295004501A747036350010C2D01102E01332B97
:1002A500011423013120034C2A00CC480000012B06
:1002B5003F3F3F00790AA2D5200B14300D09B91034
:1002C500020404B9080104A2D5200E02500104203D
:1002D5000A68920AB575005034C0E07F20300B19CA
:1002E5007F30A20A720E720D500F120312C20AC29B
:1002F5000EC20DC2107F30800F300D03E9C0E01231
:100305000061300D03D0E0F9D0E0B575CC300D17A4
:100315007F30B9100C1200617F58300C077F788050
:1003250003B90803120061300A057F2D0200617FC1
:10033500202010F87F2B200EF322920A80CF286E02
:10034500756C6C2900D2091200263009F8C20978AB
:100355007530D50108F60200CC2D504349581200DE
:10036500262403B405004001E490035E9312005275
:0D037500743A120052D20B7575040201B1EA
:10067C000204DFE493A3F8E493A34003F68001F2B1
:10068C0008DFF48029E493A3F85407240CC8C3337F
:10069C00C4540F4420C8834004F456800146F6DF4E
:1006AC00E4800B0102040810204080900928E47EAD
:1006BC00019360BCA3FF543F30E509541FFEE49343
:1006CC00A360010ECF54C025E060A840B8E493A30A
:1006DC00FAE493A3F8E493A3C8C582C8CAC583CA35
:1006EC00F0A3C8C582C8CAC583CADFE9DEE780BEED
:0109320000C4
:10060F00BB010689828A83E0225002E722BBFE02E9
:09061F00E32289828A83E493221C
:10062800BB010689828A83F0225002F722BBFE01B1
:02063800F322AB
:10063A00FAE6FB0808E6F925F0F618E6CA3AF622C1
:10064A00D083D082F8E4937012740193700DA3A33F
:10065A0093F8740193F5828883E473740293686053
:06066A00EFA3A3A380DF53
:00000001FF
