:10035F000A3D3D3D3D3D3D3D3D3D3D3D3D3D3D3DF1
:10036F003D3D3D3D3D3D3D3D3D3D3D3D3D3D3D3DAE
:10037F003D3D3D3D3D3D3D3D3D3D3D3D3D3D3D3D9E
:10038F003D3D3D3D3D3D3D3D0A003D3D3D3D3D3DFE
:10039F003D3D3D3D3D3D3D3D3D3D3D3D3D202053A2
:1003AF006932345231205478205445535420203D23
:1003BF003D3D3D3D3D3D3D3D3D3D3D3D3D3D0A00CE
:1003CF003D3D3D3D3D3D3D3D3D3D3D3D3D3D3D3D4E
:1003DF003D3D3D20202020202020204E4F20414316
:1003EF004B202020202020203D3D3D3D3D3D3D3DEB
:1003FF003D3D3D3D3D3D3D0A003D3D3D3D3D3D3D8E
:10040F003D3D3D3D3D3D3D3D3D3D3D3D3D3D3D3D0D
:10041F003D3D3D3D3D3D3D3D3D3D3D3D3D3D3D3DFD
:10042F003D3D3D3D3D3D3D3D3D3D3D3D3D3D3D3DED
:10043F000A000A5472616E736D69746564204461B9
:10044F0074613A0A003D3D3D3D3D3D3D3D3D3D3DE5
:10045F003D3D3D3D3D3D3D3D3D20232564203D3D02
:10046F003D3D3D3D3D3D3D3D3D3D3D3D3D3D3D3DAD
:10047F003D0A00256420000A000A3D3D3D3D3D3DFB
:10048F003D3D3D3D3D3D3D3D3D3D3D3D3D3D3D3D8D
:10049F003D3D3D3D3D3D3D3D3D3D3D3D3D3D3D3D7D
:0D04AF003D3D3D3D3D0A0A00AAAAAAAA0053
:0A08AC00015000015100C112C111FA
:10085F00C2907BFF7A0479B775110522C2911208F5
:06086F002EAD07E4FC229F
:1004BC00E4F508FF1207DF1208A1E4FF1207DF7A48
:1004CC0003795F1205817A0379991200657BFF7AB3
:1004DC000379CF1200657BFF7A04790812006575E9
:1004EC00090174232509F8A6090509E509B420F2C8
:1004FC007B007A0079231206D62095FDE4FD7F0758
:10050C0012084E8F2030055C7F01120718AD207F3A
:10051C002712084E7A0479411205817A04795475B0
:10052C000D0085230E1200657509017BFF7A047995
:10053C008274232509F8E6750D00F50E120065E5A9
:10054C000975F00A84E5F070097BFF7A047986124C
:10055C0000650509E509C3942040D07BFF7A047936
:10056C0088120065E4F509E509C3940F508212075F
:05057C0055050980F2A5
:080581007BFF1200657BFF22E5
:0F088500758780759840758920758DFAD28E22FF
:0808C0008F993099FDC29922C5
:10087500AE07BE0A057F0D1208C0AF061208C022DA
:0B08A1001208857F011207180208B73B
:0908B700C290D291C292D29522A6
:10082E00E4FEEF339293EF25E0FFD292A294E433ED
:08083E004207C2920EBE08EA57
:01084600228F
:0708470012084E7D407F25E1
:10084E00C29112082EAC07AF0512082ED291AF043A
:01085E002277
:0C089400C29112082EE4FF12082ED2912F
:0108A0002235
:06078B008B448A458946FB
:1007910012086BECC395475017E4FF12082EAB44C7
:1007A100AA45A9468C82758300EF1205B60C80E339
:0407B100D291AF052D
:0107B5002221
:0607B6008B0E8A0F891072
:1007BC0012086BECC395115015AB0EAA0FA9108C37
:1007CC0082758300120589FF12082E0C80E5D291E8
:0207DC00AF0567
:0107DE0022F8
:1008070012085F7F2A1207B67D017F221208477DF3
:10081700207F3112084E7D077F2612084E7D0F7FFD
:070827002012084ED29022BE
:1006D6008B0A8A0B890C12085F7F301207B67D05DC
:1006E6007F3D12084EAB0AAA0BA90C7511207FB0EC
:1006F6001207B67D037F2312084E7D1F7F24120842
:10070600477D077F2612084E7D0E7F2012084ED2A7
:0207160090222F
:020718008F0A46
:10071A00E4F50BE50BC3950A5030050BB2A0B2A164
:10072A00B2B2B2B3B2B4B2A5B2A6B2A71207551208
:10073A000755120755120755B2A7B2A6B2A5B2B409
:0A074A00B2B3B2B2B2A1B2A080C9EE
:010754002282
:1007DF00C208EF6022D208A20892A0A20892A1A29A
:1007EF000892B2A20892B3A20892B4A20892A5A24C
:0707FF000892A6A20892A7D0
:0108060022CF
:10075500E4F50FF50EF50DF50CE47F887E13FDFC31
:10076500AB0FAA0EA90DA80CC31205D85017E50F9B
:100775002401F50FE4350EF50EE4350DF50DE435E0
:050785000CF50C80D40E
:01078A00224C
:0300000002064AAB
:0C064A00787FE4F6D8FD7581510206911E
:10058900BB010CE58229F582E5833AF583E0225027
:1005990006E92582F8E622BBFE06E92582F8E22271
:0D05A900E58229F582E5833AF583E493228B
:1005B600F8BB010DE58229F582E5833AF583E8F07B
:1005C600225006E92582C8F622BBFE05E92582C827
:0205D600F2220F
:1005D800EB9FF5F0EA9E42F0E99D42F0E89C45F079
:0105E80022F0
:10000300E519240DF8E6051922780A300F02780D58
:10001300E475F0011206140205E92008EB7F2ED2E5
:10002300088018EF540F2490D43440D4FF300C0BC5
:10003300EF24BFB41A0050032461FFE51A600215D0
:100043001A051DE51D7002051C300F0D780AE475B5
:10005300F001120614EF0206020208757403D20FB0
:100063008003E4C20FF5198B0A8A0B890CE4F51A95
:10007300F51CF51DE51A60077F2012003E80F5751B
:100083001BFFC209C208C20AC20BC20DC20EC210B4
:1000930012000CFF700D300F057F0012004FAF1DD3
:1000A300AE1C22B4255FC2D5C20C12000CFF24D0B3
:1000B300B40A00501A75F00A781A30D50508B6FF4D
:1000C3000106C6A426F620D5047002D20B80D924DB
:1000D300CFB41A00EF5004C2E5D20C02024FD2098A
:1000E30080C6D20880C0D20A80BCD2D580BAD20DD5
:1000F30080B47F2012003E200A077401B51A004025
:10010300F1120003FF12003E020077D210D20E80DC
:1001130095120003FB120003FA120003F94A4B7015
:100123000679207A037BFF200A2EE51A602A7E00D7
:100133008E8275830012058960060EEE651B70F0D2
:10014300C2D5EBC0E0EAC0E0E9C0E0EE120296D00F
:10015300E0F9D0E0FAD0E0FB1205E9FF60AAEBC0BA
:10016300E0EAC0E0E9C0E012003ED0E02401F9D0AB
:10017300E03400FAD0E0FBE51B0460DCD51BD9803A
:10018300877BFF7A027992D20A809C791080027968
:1001930008C20EC2108008D2D5790A8004790AC237
:1001A300D5E51B047002F51BE4FAFDFEFF12000304
:1001B300FC7B08200913120003FD7B1030080A1290
:1001C3000003FE120003FF7B20EC3382D592D5504F
:1001D30013C3E43008069FFFE49EFEE42009039D59
:1001E300FDE49CFCE4CBF8C209EC700CCFCECDCC83
:1001F300E824F8F870F38017C3EF33FFEE33FEED16
:1002030033FDEC33FCEB33FB994002FB0FD8E9EBF6
:10021300300905F8D0E0C448B209C0E00AEC4D4EFD
:100223004F78207B0070C2EAB51B0040BCC0E012CF
:100233000298D0F0D0E0200904C4C0E0C4B209C0E1
:10024300F0120027D0F0D5F0EB020077120624015C
:100253001453018E5800E54C00E14201924F019A7C
:0F02630044019A4900FA4301A0550184460184E1
:100272004501844703405000E92D00ED2E01102B6B
:1002820000F123010E2003292A00A94800000108D9
:100292003F3F3F00790AA2D5200B14300D09B91057
:1002A200020404B9080104A2D5200E025001042060
:1002B2000A68920AB51A005034C0E07F20300B1948
:1002C2007F30A20A720E720D500F1202EFC20AC2E2
:1002D2000EC20DC2107F30800F300D03E9C0E01254
:1002E200003E300D03D0E0F9D0E0B51ACC300D1746
:1002F2007F30B9100C12003E7F58300C077F788097
:1003020003B9080312003E300A057F2D02003E7F2A
:10031200202010F87F2B200EF322920A80CF286E25
:10032200756C6C2900D2091200033009F8C20978F1
:100332001A30D50108F60200A92D5043495812007F
:10034200032403B405004001E490033B9312002F01
:0D035200743A12002FD20B751A0402018EAE
:100656000204BCE493A3F8E493A34003F68001F2FA
:1006660008DFF48029E493A3F85407240CC8C333A5
:10067600C4540F4420C8834004F456800146F6DF74
:10068600E4800B01020408102040809008ACE47E50
:10069600019360BCA3FF543F30E509541FFEE49369
:1006A600A360010ECF54C025E060A840B8E493A330
:1006B600FAE493A3F8E493A3C8C582C8CAC583CA5B
:1006C600F0A3C8C582C8CAC583CADFE9DEE780BE13
:0108B6000041
:1005E900BB010689828A83E0225002E722BBFE0210
:0905F900E32289828A83E4932243
:10060200BB010689828A83F0225002F722BBFE01D7
:02061200F322D1
:10061400FAE6FB0808E6F925F0F618E6CA3AF622E7
:10062400D083D082F8E4937012740193700DA3A365
:1006340093F8740193F5828883E473740293686079
:06064400EFA3A3A380DF79
:00000001FF
