:1004C1000A3D3D3D3D3D3D3D3D3D3D3D3D3D3D3D8E
:1004D1003D3D3D3D3D3D3D3D3D3D3D3D3D3D3D3D4B
:1004E1003D3D3D3D3D3D3D3D3D3D3D3D3D3D3D3D3B
:1004F1003D3D3D3D3D3D3D3D0A003D3D3D3D3D3D9B
:100501003D3D3D3D3D3D3D3D3D3D3D3D3D2020533E
:100511006932345231205478205445535420203DBF
:100521003D3D3D3D3D3D3D3D3D3D3D3D3D3D0A006A
:100531003D3D3D3D3D3D3D3D3D3D3D3D3D3D3D3DEA
:100541003D3D3D2020202020202020202041434BE4
:1005510020202020202020203D3D3D3D3D3D3D3DB2
:100561003D3D3D3D3D3D3D0A003D3D3D3D3D3D3D2A
:100571003D3D3D3D3D3D3D3D3D3D3D3D3D3D3D3DAA
:100581003D3D3D3D3D3D3D3D3D3D3D3D3D3D3D3D9A
:100591003D3D3D3D3D3D3D3D3D3D3D3D3D3D3D3D8A
:1005A1000A005472616E736D6974656420446174EC
:1005B100613A0A003D3D3D3D3D3D3D3D3D3D3D3DB9
:1005C1003D3D20232564203D3D3D3D3D3D3D3D3D9F
:1005D1003D3D3D3D3D0A00256420000A000A3D3DA8
:1005E1003D3D3D3D3D3D3D3D3D3D3D3D3D3D3D3D3A
:1005F1003D3D3D3D3D3D3D3D3D3D3D3D3D3D0A0A90
:10060100005061796C6F616420446174613A0A0041
:05061100AAAAAAAA003C
:0A0A0800013900013A00C112C111CA
:10035F00E4F508F50AF50B1209FD7BFF7A0479C164
:10036F001200657BFF7A0479FB1200657BFF7A052B
:10037F0079311200657BFF7A05796A12006575097C
:10038F0001050BE50B7002050AFFAE0A12090612F2
:10039F0008C47C017D0012066574282509F8A6059E
:1003AF000509E509C3940540D8AF0805088F287BD8
:1003BF00007A0079281207EE2095FDE4FD7F0712E1
:1003CF0009C08F20200503020495AD207F27120955
:1003DF00C07BFF7A0579A31200657BFF7A0579B59B
:1003EF00750F008528101200657509017BFF7A05CE
:1003FF0079D874282509F8E6750F00F510120065F5
:10040F00E50975F00A84E5F070097BFF7A0579DC60
:10041F001200650509E509C3940540D07BFF7A05F5
:10042F0079DE1200657BFF7A0679021200657B0088
:10043F007A0079237510057F61120947E4FD7FE289
:10044F001209C0E4F5097BFF7A0579D874232509D1
:10045F00F8E6750F00F510120065E50975F00A84CE
:10046F00E5F070097BFF7A0579DC1200650509E577
:10047F0009C3940540D07BFF7A0579DE1200657FB2
:10048F00011208608018300415AD207F271209C0B3
:10049F00E4FD7FE11209C0E4FD7FE21209C0E4F53B
:1004AF0009E509C39408400302038D1209110509D8
:0204BF0080EFCC
:0F09E100758780759840758920758DFAD28E22A2
:080A1C008F993099FDC2992267
:1009D100AE07BE0A057F0D120A1CAF06120A1C22C1
:0B09FD001209E17F01120860020A13DA
:090A1300C290D291C292D2952248
:1009A700E4FEEF339293EF25E0FFD292A294E43373
:0809B7004207C2920EBE08EADD
:0109BF002215
:1009C000C2911209A7AC07AF051209A7D291AF04D3
:0109D0002204
:0C09F000C2911209A7E4FF1209A7D291DE
:0109FC0022D8
:060947008B0D8A0E890FE2
:10094D00C2911209A7AD07E4FCECC395105017E452
:10095D00FF1209A7AB0DAA0EA90F8C82758300EFAC
:0A096D001206430C80E3D291AF059F
:01097700225D
:060978008B108A118912A8
:10097E00C2911209A7AD07E4FCECC395135015AB59
:10098E0010AA11A9128C82758300120616FF120985
:08099E00A70C80E5D291AF0522
:0109A600222E
:1007EE008B0C8A0D890EC2907D4E7F201209C07B24
:1007FE00FF7A0679117513057F301209787BFF7A1F
:10080E000679117513057F2A120978AB0CAA0DA96A
:10081E000E7513057FA01209787D037F231209C080
:10082E007D017F211209C07F221209C07D037F2422
:10083E001209C07D7B7F251209C07D0F7F2612090C
:10084E00C07D067F3D1209C07D017F3C1209C0D2DA
:02085E009022E6
:020860008F0CFB
:10086200E4F50DE50DC3950C5057050DB2A0120924
:1008720011B2A1120911B2B2120911B2B3120911C5
:10088200B2B4120911B2A5120911B2A6120911B21B
:10089200A7120911B2A7120911B2A6120911B2A523
:1008A200120911B2B4120911B2B3120911B2B21281
:1008B2000911B2A1120911B2A01209111209118073
:0108C200A293
:0108C3002212
:10091100E4F511F510F50FF50EE47F887E13FDFC6B
:10092100AB11AA10A90FA80EC312069B5017E5110F
:100931002401F511E43510F510E4350FF50FE43518
:050941000EF50E80D44C
:01094600228E
:0300000002076292
:0C076200787FE4F6D8FD75813A0207A903
:10061600BB010CE58229F582E5833AF583E0225099
:1006260006E92582F8E622BBFE06E92582F8E222E3
:0D063600E58229F582E5833AF583E49322FD
:10064300F8BB010DE58229F582E5833AF583E8F0ED
:10065300225006E92582C8F622BBFE05E92582C899
:02066300F22281
:10066500C2D5EC30E709B2D5E4C39DFDE49CFCEEB0
:1006750030E715B2D5E4C39FFFE49EFE1206D7C34B
:10068500E49DFDE49CFC80031206D730D507C3E446
:060695009FFFE49EFE221F
:10069B00EB9FF5F0EA9E42F0E99D42F0E89C45F0B5
:0106AB00222C
:10000300E51B240FF8E6051B22780C300F02780F4E
:10001300E475F00112072C0206AC2008EB7F2ED208
:10002300088018EF540F2490D43440D4FF300C0BC5
:10003300EF24BFB41A0050032461FFE51C600215CE
:100043001C051FE51F7002051E300F0D780CE475AB
:10005300F00112072CEF0206C50209D17403D20F77
:100063008003E4C20FF51B8B0C8A0D890EE4F51C8B
:10007300F51EF51FE51C60077F2012003E80F57515
:100083001DFFC209C208C20AC20BC20DC20EC210B2
:1000930012000CFF700D300F057F0012004FAF1FD1
:1000A300AE1E22B4255FC2D5C20C12000CFF24D0B1
:1000B300B40A00501A75F00A781C30D50508B6FF4B
:1000C3000106C6A426F620D5047002D20B80D924DB
:1000D300CFB41A00EF5004C2E5D20C02024FD2098A
:1000E30080C6D20880C0D20A80BCD2D580BAD20DD5
:1000F30080B47F2012003E200A077401B51C004023
:10010300F1120003FF12003E020077D210D20E80DC
:1001130095120003FB120003FA120003F94A4B7015
:100123000679207A037BFF200A2EE51C602A7E00D5
:100133008E8275830012061660060EEE651D70F042
:10014300C2D5EBC0E0EAC0E0E9C0E0EE120296D00F
:10015300E0F9D0E0FAD0E0FB1206ACFF60AAEBC0F6
:10016300E0EAC0E0E9C0E012003ED0E02401F9D0AB
:10017300E03400FAD0E0FBE51D0460DCD51DD98036
:10018300877BFF7A027992D20A809C791080027968
:1001930008C20EC2108008D2D5790A8004790AC237
:1001A300D5E51D047002F51DE4FAFDFEFF12000300
:1001B300FC7B08200913120003FD7B1030080A1290
:1001C3000003FE120003FF7B20EC3382D592D5504F
:1001D30013C3E43008069FFFE49EFEE42009039D59
:1001E300FDE49CFCE4CBF8C209EC700CCFCECDCC83
:1001F300E824F8F870F38017C3EF33FFEE33FEED16
:1002030033FDEC33FCEB33FB994002FB0FD8E9EBF6
:10021300300905F8D0E0C448B209C0E00AEC4D4EFD
:100223004F78207B0070C2EAB51D0040BCC0E012CD
:100233000298D0F0D0E0200904C4C0E0C4B209C0E1
:10024300F0120027D0F0D5F0EB02007712073C0143
:100253001453018E5800E54C00E14201924F019A7C
:0F02630044019A4900FA4301A0550184460184E1
:100272004501844703405000E92D00ED2E01102B6B
:1002820000F123010E2003292A00A94800000108D9
:100292003F3F3F00790AA2D5200B14300D09B91057
:1002A200020404B9080104A2D5200E025001042060
:1002B2000A68920AB51C005034C0E07F20300B1946
:1002C2007F30A20A720E720D500F1202EFC20AC2E2
:1002D2000EC20DC2107F30800F300D03E9C0E01254
:1002E200003E300D03D0E0F9D0E0B51CCC300D1744
:1002F2007F30B9100C12003E7F58300C077F788097
:1003020003B9080312003E300A057F2D02003E7F2A
:10031200202010F87F2B200EF322920A80CF286E25
:10032200756C6C2900D2091200033009F8C20978F1
:100332001C30D50108F60200A92D5043495812007D
:10034200032403B405004001E490033B9312002F01
:0D035200743A12002FD20B751C0402018EAC
:1008C400AC2DAD2EAE2FAF307810EC4D4E4F7004E2
:1008D4007CA57DA5C3EC13FCED13FDEE13FEEF1315
:1008E400FF5010EC64CCFCED644CFDEE644EFEEF66
:1008F40064CEFFD8DF8C2D8D2E8E2F8F30EE547F5B
:0D090400FE228E2D8F2E74A5F52FF53022CA
:10076E0002035FE493A3F8E493A34003F68001F23F
:10077E0008DFF48029E493A3F85407240CC8C3338C
:10078E00C4540F4420C8834004F456800146F6DF5B
:10079E00E4800B0102040810204080900A08E47ED9
:1007AE00019360BCA3FF543F30E509541FFEE49350
:1007BE00A360010ECF54C025E060A840B8E493A317
:1007CE00FAE493A3F8E493A3C8C582C8CAC583CA42
:1007DE00F0A3C8C582C8CAC583CADFE9DEE780BEFA
:010A120000E3
:1006AC00BB010689828A83E0225002E722BBFE024C
:0906BC00E32289828A83E493227F
:1006C500BB010689828A83F0225002F722BBFE0114
:0206D500F3220E
:1006D700BC000BBE0029EF8DF084FFADF022E4CC07
:1006E700F875F008EF2FFFEE33FEEC33FCEE9DECD0
:1006F700984005FCEE9DFE0FD5F0E9E4CEFD22ED16
:10070700F8F5F0EE8420D21CFEADF075F008EF2F5F
:10071700FFED33FD4007985006D5F0F222C398FD50
:050727000FD5F0EA22ED
:10072C00FAE6FB0808E6F925F0F618E6CA3AF622CE
:10073C00D083D082F8E4937012740193700DA3A34C
:10074C0093F8740193F5828883E473740293686060
:06075C00EFA3A3A380DF60
:00000001FF
