:10035F000A3D3D3D3D3D3D3D3D3D3D3D3D3D3D3DF1
:10036F003D3D3D3D3D3D3D3D3D3D3D3D3D3D3D3DAE
:10037F003D3D3D3D3D3D3D3D3D3D3D3D3D3D3D3D9E
:10038F003D3D3D3D3D3D3D3D0A003D3D3D3D3D3DFE
:10039F003D3D3D3D3D3D3D3D3D3D3D3D3D202053A2
:1003AF006932345231205478205445535420203D23
:1003BF003D3D3D3D3D3D3D3D3D3D3D3D3D3D0A00CE
:1003CF003D3D3D3D3D3D3D3D3D3D3D3D3D3D3D3D4E
:1003DF003D3D3D2020202020202020202041434B48
:1003EF0020202020202020203D3D3D3D3D3D3D3D16
:1003FF003D3D3D3D3D3D3D0A003D3D3D3D3D3D3D8E
:10040F003D3D3D3D3D3D3D3D3D3D3D3D3D3D3D3D0D
:10041F003D3D3D3D3D3D3D3D3D3D3D3D3D3D3D3DFD
:10042F003D3D3D3D3D3D3D3D3D3D3D3D3D3D3D3DED
:10043F000A005472616E736D69746564204461744F
:10044F00613A0A003D3D3D3D3D3D3D3D3D3D3D3D1C
:10045F003D3D20232564203D3D3D3D3D3D3D3D3D02
:10046F003D3D3D3D3D0A00256420000A000A3D3D0B
:10047F003D3D3D3D3D3D3D3D3D3D3D3D3D3D3D3D9D
:10048F003D3D3D3D3D3D3D3D3D3D3D3D3D3D0A0AF3
:06049F00000A0A0A0A0A25
:0A088700015000015100C112C1111F
:1004A500E4F50812087C7BFF7A03795F1200657B0F
:1004B500FF7A0379991200657BFF7A0379CF1200E1
:1004C500657BFF7A04790812006575090174232597
:1004D50009F8A6090509E509B420F2AF0805088F52
:1004E500237B007A0079231206D02095FDE4FD7F59
:1004F5000712083F8F20300562AD207F2712083F85
:100505007F0112071D7BFF7A0479411200657BFF8D
:100515007A047953750D0085230E1200657509015E
:100525007BFF7A04797674232509F8E6750D00F5C5
:100535000E120065E50975F00A84E5F070097BFF88
:100545007A04797A1200650509E509C3942040D03B
:100555007BFF7A04797C120065800F30040CAD2096
:100565007F2712083F7FE112083FE4F509E509C33B
:0E057500940F40030204E0120794050980EF82
:0F086000758780759840758920758DFAD28E2224
:08089B008F993099FDC29922EA
:10085000AE07BE0A057F0D12089BAF0612089B2249
:0B087C001208607F0112071D020892A5
:09089200C290D291C292D29522CB
:10081F00E4FEEF339293EF25E0FFD292A294E433FC
:08082F004207C2920EBE08EA66
:01083700229E
:0708380012083F7D407F25FF
:10083F00C29112081FAC07AF0512081FD291AF0467
:01084F002286
:0C086F00C29112081FE4FF12081FD29172
:01087B00225A
:0607CA008B448A458946BC
:1007D000C29112081FAD07E4FCECC395475017E423
:1007E000FF12081FAB44AA45A9468C82758300EF0F
:0A07F0001205B00C80E3D291AF05B2
:0107FA0022DC
:0B075A007BFF7A0479A07511057F2A4F
:060765008B0E8A0F8910C3
:10076B00C29112081FAD07E4FCECC395115015ABF9
:10077B000EAA0FA9108C82758300120583FF120835
:08078B001F0C80E5D291AF05BF
:010793002243
:1007FB00C29012075A7D017F221208387D207F316B
:10080B0012083F7D077F2612083F7D0F7F201208BD
:04081B003FD2902216
:1006D0008B0A8A0B890CC2907BFF7A0479A0751172
:1006E000057F3012076512075AAB0AAA0BA90C75D1
:1006F00011207FA01207657D037F2312083F7D0133
:100700007F2212083F7D0F7F241208387D077F2645
:0D07100012083F7D4E7F2012083FD290223C
:02071D008F0A41
:10071F00E4F50BE50BC3950A5030050BB2A0B2A15F
:10072F00B2B2B2B3B2B4B2A5B2A6B2A712079412C4
:10073F000794120794120794B2A7B2A6B2A5B2B447
:0A074F00B2B3B2B2B2A1B2A080C9E9
:01075900227D
:10079400E4F50FF50EF50DF50CE47F887E13FDFCF2
:1007A400AB0FAA0EA90DA80CC31205D25017E50F62
:1007B4002401F50FE4350EF50EE4350DF50DE435A1
:0507C4000CF50C80D4CF
:0107C900220D
:03000000020644B1
:0C064400787FE4F6D8FD75815102068B2A
:10058300BB010CE58229F582E5833AF583E022502D
:1005930006E92582F8E622BBFE06E92582F8E22277
:0D05A300E58229F582E5833AF583E4932291
:1005B000F8BB010DE58229F582E5833AF583E8F081
:1005C000225006E92582C8F622BBFE05E92582C82D
:0205D000F22215
:1005D200EB9FF5F0EA9E42F0E99D42F0E89C45F07F
:0105E20022F6
:10000300E519240DF8E6051922780A300F02780D58
:10001300E475F00112060E0205E32008EB7F2ED2F1
:10002300088018EF540F2490D43440D4FF300C0BC5
:10003300EF24BFB41A0050032461FFE51A600215D0
:100043001A051DE51D7002051C300F0D780AE475B5
:10005300F00112060EEF0205FC0208507403D20FE2
:100063008003E4C20FF5198B0A8A0B890CE4F51A95
:10007300F51CF51DE51A60077F2012003E80F5751B
:100083001BFFC209C208C20AC20BC20DC20EC210B4
:1000930012000CFF700D300F057F0012004FAF1DD3
:1000A300AE1C22B4255FC2D5C20C12000CFF24D0B3
:1000B300B40A00501A75F00A781A30D50508B6FF4D
:1000C3000106C6A426F620D5047002D20B80D924DB
:1000D300CFB41A00EF5004C2E5D20C02024FD2098A
:1000E30080C6D20880C0D20A80BCD2D580BAD20DD5
:1000F30080B47F2012003E200A077401B51A004025
:10010300F1120003FF12003E020077D210D20E80DC
:1001130095120003FB120003FA120003F94A4B7015
:100123000679207A037BFF200A2EE51A602A7E00D7
:100133008E8275830012058360060EEE651B70F0D8
:10014300C2D5EBC0E0EAC0E0E9C0E0EE120296D00F
:10015300E0F9D0E0FAD0E0FB1205E3FF60AAEBC0C0
:10016300E0EAC0E0E9C0E012003ED0E02401F9D0AB
:10017300E03400FAD0E0FBE51B0460DCD51BD9803A
:10018300877BFF7A027992D20A809C791080027968
:1001930008C20EC2108008D2D5790A8004790AC237
:1001A300D5E51B047002F51BE4FAFDFEFF12000304
:1001B300FC7B08200913120003FD7B1030080A1290
:1001C3000003FE120003FF7B20EC3382D592D5504F
:1001D30013C3E43008069FFFE49EFEE42009039D59
:1001E300FDE49CFCE4CBF8C209EC700CCFCECDCC83
:1001F300E824F8F870F38017C3EF33FFEE33FEED16
:1002030033FDEC33FCEB33FB994002FB0FD8E9EBF6
:10021300300905F8D0E0C448B209C0E00AEC4D4EFD
:100223004F78207B0070C2EAB51B0040BCC0E012CF
:100233000298D0F0D0E0200904C4C0E0C4B209C0E1
:10024300F0120027D0F0D5F0EB02007712061E0162
:100253001453018E5800E54C00E14201924F019A7C
:0F02630044019A4900FA4301A0550184460184E1
:100272004501844703405000E92D00ED2E01102B6B
:1002820000F123010E2003292A00A94800000108D9
:100292003F3F3F00790AA2D5200B14300D09B91057
:1002A200020404B9080104A2D5200E025001042060
:1002B2000A68920AB51A005034C0E07F20300B1948
:1002C2007F30A20A720E720D500F1202EFC20AC2E2
:1002D2000EC20DC2107F30800F300D03E9C0E01254
:1002E200003E300D03D0E0F9D0E0B51ACC300D1746
:1002F2007F30B9100C12003E7F58300C077F788097
:1003020003B9080312003E300A057F2D02003E7F2A
:10031200202010F87F2B200EF322920A80CF286E25
:10032200756C6C2900D2091200033009F8C20978F1
:100332001A30D50108F60200A92D5043495812007F
:10034200032403B405004001E490033B9312002F01
:0D035200743A12002FD20B751A0402018EAE
:100650000204A5E493A3F8E493A34003F68001F217
:1006600008DFF48029E493A3F85407240CC8C333AB
:10067000C4540F4420C8834004F456800146F6DF7A
:10068000E4800B0102040810204080900887E47E7B
:10069000019360BCA3FF543F30E509541FFEE4936F
:1006A000A360010ECF54C025E060A840B8E493A336
:1006B000FAE493A3F8E493A3C8C582C8CAC583CA61
:1006C000F0A3C8C582C8CAC583CADFE9DEE780BE19
:010891000066
:1005E300BB010689828A83E0225002E722BBFE0216
:0905F300E32289828A83E4932249
:1005FC00BB010689828A83F0225002F722BBFE01DE
:02060C00F322D7
:10060E00FAE6FB0808E6F925F0F618E6CA3AF622ED
:10061E00D083D082F8E4937012740193700DA3A36B
:10062E0093F8740193F5828883E47374029368607F
:06063E00EFA3A3A380DF7F
:00000001FF
