:020000040800F2
:10000000A80400209D0100088F0F0008450E00087D
:100010008D0F0008A90200087916000800000000F2
:10002000000000000000000000000000ED120008C9
:10003000AB02000800000000DD110008EF1200080C
:10004000B7010008B7010008B7010008B7010008B0
:10005000B7010008B7010008B7010008B7010008A0
:10006000B7010008B7010008B7010008B701000890
:10007000B7010008B7010008B7010008B701000880
:10008000B7010008B7010008B7010008B701000870
:10009000B7010008B7010008B7010008B701000860
:1000A000B7010008B7010008B7010008B701000850
:1000B000B7010008B7010008B7010008B701000840
:1000C000B7010008B7010008B7010008B701000830
:1000D000B7010008B7010008B7010008B701000820
:1000E000B7010008B7010008B7010008B701000810
:1000F000B7010008B7010008B7010008B701000800
:10010000B7010008B7010008B7010008B7010008EF
:10011000B7010008B7010008B7010008B7010008DF
:10012000B7010008B7010008B7010008B7010008CF
:10013000B7010008B7010008B7010008B7010008BF
:10014000B7010008B7010008B7010008B7010008AF
:10015000B7010008B7010008B7010008B70100089F
:10016000B7010008B7010008B7010008B70100088F
:10017000B7010008B7010008B7010008000000003F
:10018000B7010008B7010008DFF80CD000F07AF8DA
:1001900000480047B9160008A80400200648804718
:1001A00006480047FEE7FEE7FEE7FEE7FEE7FEE75C
:1001B000FEE7FEE7FEE7FEE7791300088901000885
:1001C0002DE9F05F0546002092469B46884606468C
:1001D000814640241BE0284641464746224600F01F
:1001E00041F853465A46C01A914110D31146184659
:1001F000224600F028F82D1A67EB01084F462246E8
:100200000120002100F01FF817EB00094E41201ECD
:10021000A4F10104DFDC484631462A464346BDE8E6
:10022000F09FD2B201E000F8012B491EFBD27047CB
:100230000022F6E710B513460A4604461946FFF7B2
:10024000F0FF204610BD202A04DB203A00FA02F11C
:10025000002070479140C2F1200320FA03F31943B4
:1002600090407047202A04DB203A21FA02F0002156
:10027000704721FA02F3D040C2F1200291400843B6
:1002800019467047064C074D06E0E06840F0010350
:1002900094E8070098471034AC42F6D3FFF778FF94
:1002A0004817000868170008FEE77047704700000D
:1002B0002DE9F84FDFF87CB100224FF001084FF034
:1002C000030A4FF00F090BF1040E00BF0B6808FA88
:1002D00002F42340A3426ED14D68022D01D0122DAD
:1002E0000ED1D50800EB850CDCF820505607F70E30
:1002F00009FA07F6B5430E69BE402E43CCF82060DC
:10030000066855000F790AFA05FC07F0030726EA8C
:100310000C06AF40374307604E68012E05D0022E11
:1003200003D0112E01D0122E0ED18668CF6826EA96
:100330000C06AF40374387604668A6430C79C4F388
:100340000014944034434460C6688C6826EA0C0666
:10035000AC403443C4604C68E40065D5364C256835
:1003600045F480452560246822F0030504F48044A8
:100370000094324C2E19D6F8084895072F0F09FA29
:1003800007F5AC432E4DA84201D1002524E02D4DA8
:10039000A84201D101251FE02B4DA84201D1022521
:1003A0001AE02A4DA84201D1032515E0284DA842A4
:1003B00002D1042510E037E0264DA84201D10525E1
:1003C0000AE0254DA84201D1062505E0234DA842AB
:1003D00001D1072500E00825BD402543C6F808588F
:1003E000DBF800405D464E689C43F60300D51C4395
:1003F0002C60DEF8004075464E689C43B60300D57D
:100400001C432C600B4D08352C684E689C43F6024B
:1004100000D51C432C60074D0C352C684E689C435E
:10042000B60200D51C432C60521C102AFFF44EAFBC
:10043000BDE8F88F003C01404438024000300140E4
:10044000000002400004024000080240000C02408C
:10045000001002400014024000180240001C02403C
:100460000069084000D0012070470AB181617047DF
:100470000904FBE701488068704700000000002085
:1004800002488168027811448160704700000020B2
:100490000B4810B5016841F400710160016841F436
:1004A00080610160016841F480710160032000F007
:1004B00061F8002000F006F800F024F8002010BDDC
:1004C000003C024070B50D4D04464FF47A71287817
:1004D000B1FBF0F00A490968B1FBF0F000F037FC1D
:1004E00048B9102C07D200222146501E00F022F8F5
:1004F00000206C6070BD012070BD00000000002075
:100500000C0000200A4808B5016841F480410160F0
:10051000006800F4804000900548001F016841F029
:1005200080510160006800F08050009008BD00001C
:1005300044380240F0B40E4B1B680C46C3F3022350
:10054000C3F10705042D00D90425191D072901D27F
:10055000002300E0DB1E012606FA05F1491E2140BA
:1005600099409E40761E16403143F0BC01F085B89C
:100570000CED00E0064900F0070208684FF6FF03A3
:10058000184040EA0220034A104308607047000008
:100590000CED00E00000FA052DE9F0470E460500DD
:1005A00065D0DFF81481D8F80000F7B200F00F0032
:1005B000B04207D288F80070D8F8000000F00F00B1
:1005C000B04254D128683D4C810712D5400703D56D
:1005D000206840F4E05020602878000703D52068A8
:1005E00040F4604020602068A96820F0F0000843D3
:1005F00020602878C0072DD0304968680839012864
:1006000012D0022813D0032811D0096889070029C5
:100610002DDA216821F0030101432160FFF72AFF51
:10062000814641F2883A0EE009688903EFE70968DC
:100630008901ECE7FFF71EFFA0EB0901514502D944
:100640000320BDE8F0872068696800F00C00B0EB7B
:10065000810FEFD1D8F80010404601F00F01B142F0
:1006600007D90770006800F00F00B04201D00120E8
:10067000E7E72878400705D52068E96820F4E050CE
:10068000084320602878000706D52068296920F4EF
:10069000604040EAC100206000F036F82168084A56
:1006A000C1F30311515CC840064908600020FFF700
:1006B00009FF0020C5E70000003C02400838024066
:1006C0002D1700080C00002004480549006809683F
:1006D000044AC1F38221515CC84070470C000020DD
:1006E000083802403D1700080448054900680968B9
:1006F000044AC1F34231515CC84070470C000020ED
:10070000083802403D170008154810B5006810F081
:100710000C02144813D04110042A0FD0082A0ED11D
:100720000F4C241F2268236802F03F025B0207D5AA
:100730002068C0F38810A0FB010106E0084610BD48
:100740002168C1F38811A1FB00010023FFF738FDE8
:100750002168C1F30141491C4900B0FBF1F010BD13
:10076000083802400024F4002DE9F84F050076D047
:100770002878DFF8F8B2BE4CC00749D0DBF800108B
:100780005846C1F38101012908D00068C0F38100F7
:1007900002280AD1201D0068400206D52068800387
:1007A00036D568680028E2D032E06868B0F5803F4E
:1007B00010D0B0F5A02F206810D020F48030206039
:1007C000206820F4802020606868A0B1FFF752FE06
:1007D00006460CE0206840F48030F4E740F48020C6
:1007E0002060F7E7FFF746FE801B642873D8206877
:1007F0008003F7D50CE0FFF73DFE064605E000BF9D
:10080000FFF738FE801B6428F0D820688003F7D4F7
:100810002878DFF8608280074FF000093ED5DBF8CA
:100820000010584611F00C0F09D00068C0F3810089
:1008300002280BD18D48001F0068400206D42068B2
:10084000800715D5E868012809D111E0E868B8B13A
:100850000120C8F80000FFF70DFE064605E002E1A2
:10086000FFF708FE801B0228C0D820688007F7D554
:100870002068296920F0F80040EAC10020600DE0FE
:10088000C8F80090FFF7F6FD064604E0FFF7F2FD1A
:10089000801B02281FD820688007F7D4287800071B
:1008A00022D5724E744869696C3671B101210160BC
:1008B000FFF7E0FD074604E0FFF7DCFDC01B022860
:1008C00009D830688007F7D50EE0C0F80090FFF730
:1008D000D1FD074605E083E0FFF7CCFDC01B0228F1
:1008E0007ED830688007F7D42878400768D5DFF8CD
:1008F0007CA100270AF1380ADAF80000C0000BD406
:10090000DAF8001041F08051CAF80010DAF800005F
:10091000012700F080500090584E3068C00510D478
:10092000306840F480703060FFF7A4FD009005E06F
:10093000FFF7A0FD0099401A022851D83068C00581
:10094000F6D54A4EA868683601280FD005283068C9
:1009500010D020F001003060306820F004003060DA
:10096000A868B8B1FFF786FD00900FE0306840F04E
:100970000100F4E740F004003060F7E7FFF77AFD8C
:100980000099411A41F28830814264D8306880076A
:10099000F4D50EE0FFF76EFD009007E0FFF76AFD6B
:1009A0000099411A41F28830814254D8306880075A
:1009B000F4D42FB1DAF8001021F08051CAF80010F9
:1009C000A869C0B3DBF80010C1F3810102294AD045
:1009D0000228484607D0C8F86000FFF74BFD00E04A
:1009E00039E005463AE04746C8F86000FFF742FDA7
:1009F000064604E0FFF73EFD801B02282BD8206846
:100A00008001F7D4D5E907010843A96A1C4A4908BF
:100A100002EB01416A6A41EA8211084395F82C1001
:100A200040EA01611148001F016001203866FFF7AC
:100A300021FD054605E014E0FFF71CFD401B0228E0
:100A400009D820688001F7D50BE000BFFFF712FD41
:100A5000401B022802D90320BDE8F88F20688001DE
:100A6000F4D40020F8E70120F6E70000083802403F
:100A70000038024000004742800E474200700040AC
:100A80000000FFFF70B5040005D00025A56294F8B2
:100A9000510010B106E0012070BD84F8505020468E
:100AA00000F030F8022084F851002068016821F03D
:100AB00040010160D4E901010843D4E90312114364
:100AC000084361690843218B01F400710843E1691F
:100AD0000843216A0843A16A084321680860A069A5
:100AE000042101EA1040616A0843216848602068D7
:100AF000C16921F40061C1616565012084F851007C
:100B0000002070BD10B586B0044614216846FFF77A
:100B10008FFB13492068884220D1124800210268C7
:100B200042F480520260006800F4805005900D4845
:100B30001438026842F002020260006800F002000D
:100B40000590382000900220CDE901010320039098
:100B50000520049069460448FFF7AAFB06B010BDC3
:100B60000030014044380240000402402DE9F84FB3
:100B7000044690F8500000270A9E1D4692468B4678
:100B80004FF0010901280ED0012084F85000FFF732
:100B900071FC804694F85100616801280CD0B1F5D1
:100BA000827F07D102E00220BDE8F88FA16809B971
:100BB000042801D00227C2E0BBF1000F27D0BAF110
:100BC000000F24D01DB394F85100042802D0052052
:100BD00084F8510000206065C4F838A0E587A58737
:100BE000C4F830B0E586A58620646064206801689A
:100BF000490603D4016841F040010160E068B0F5A6
:100C0000006F606805D0E8B3012D46D07FE0012772
:100C100095E008B1012D39D1206B21680088C860AA
:100C2000206B801C2063E08E401EE0862EE0206852
:100C3000816889070FD5E18E69B1B9F1010F0AD139
:100C4000216B0988C160206B801C2063E08E401EF0
:100C5000E0864FF0000920688168C9070CD0E18F59
:100C600051B1C068A16B0880A06B801CA063E08FAD
:100C7000401EE0874FF00109FFF7FCFBA0EB0800E6
:100C8000B04200E009E001D3701C50D1E08E002892
:100C9000CDD1E08F0028CAD13FE0206B21680078D9
:100CA0000873206B401C2063E08E401EE0862EE01F
:100CB0002068816889070FD5E18E69B1B9F1010F0C
:100CC0000AD1216B09780173206B401C2063E08EF0
:100CD000401EE0864FF0000920688168C9070CD0EB
:100CE000E18F51B1C068A16B0870A06B401CA0637C
:100CF000E08F401EE0874FF00109FFF7BBFBA0EB40
:100D00000800B04202D3701C01D010E07EB1E08E2A
:100D10000028CDD1E08F0028CAD142463146204676
:100D200000F06EFA28B101272020606507E0032754
:100D300005E0A06818B92068C168806800900120AB
:100D400084F85100002084F8500038462CE710B594
:100D5000401EB0F1807F01D3012010BD4FF0E02490
:100D600060610F21601700F088FC0020A06107205F
:100D70002061002010BD70B5040004D094F8390043
:100D8000002510B106E0012070BD84F838502046DF
:100D900000F022F8242084F839002068C16821F48A
:100DA0000051C160204600F011FB2068016921F468
:100DB000904101612068416921F02A014161206868
:100DC000C16841F40051C160E563202084F8390016
:100DD00084F83A00002070BD10B586B00446142196
:100DE0006846FFF725FA14492068884221D1134844
:100DF000016841F010010160006800F010000590EA
:100E00000E481438016841F001010160006869462C
:100E100000F0010005904FF4C060009002200190A6
:100E20000120029003200390072004900448FFF75C
:100E30003FFA06B010BD00000010014044380240E7
:100E400000000240FEE700002DE9F04387B01421C6
:100E50006846FFF7EDF92A480024016841F0800157
:100E60000160016801F080010591016841F0010114
:100E70000160016801F001010591016841F0020182
:100E800001600068DFF87C8000F00200059000221D
:100E9000C0214046FFF7E9FA0122DFF86C90970382
:100EA00039464846FFF7E1FA0022C0214846FFF7DD
:100EB000DCFAC02601250096CDE90154694640467A
:100EC0000394FFF7F5F9CDE90075CDE902546946C1
:100ED0004846FFF7EDF90220CDE90250CDE9006563
:100EE00069464846FFF7E4F92802CDE9000469465F
:100EF00048460294FFF7DCF907B0BDE8F083000034
:100F0000303802400000024000040240104810B592
:100F10000E4901604FF4827141600021022281601C
:100F2000C0E9031201224261520282611022C0E92B
:100F30000721416281620A21C162FFF7A3FD0028F7
:100F400003D0BDE81040FFF7B1B910BD003001403B
:100F5000100000200C4810B50A4901604FF4E1313F
:100F60004160002181600C22C160C0E904128161EE
:100F7000C161FFF700FF002803D0BDE81040FFF774
:100F800095B910BD0010014068000020FEE77047D1
:100F900070B5214886B00025016841F0020101606A
:100FA000016801F002010591016841F04001016012
:100FB00000684FF4804400F0400005900120CDE926
:100FC000004002900320154E039069463046FFF71B
:100FD0006FF9C020009069463046FFF769F9A0110B
:100FE000CDE9000569463046FFF762F90122214646
:100FF0003046FFF73AFAFFF789FF00F09BF800222E
:1010000040213046FFF731FA012280213046FFF7B8
:101010002CFA06B070BD00003038024000040240D7
:1010200010B5174C002240212046FFF71EFA05227A
:1010300014492A2000F094F80021212000F0B4F88F
:101040000121232000F0B0F80121222000F0ACF8AB
:101050000A21252000F0A8F80621312000F0A4F88C
:101060000721262000F0A0F80F21202000F09CF896
:1010700020460122BDE810404021FFF7F6B90000EC
:1010800000040240281700082DE9F041DFF83C80F9
:1010900015460F460446002280214046FFF7E5F939
:1010A000204600F09DF80646002405E0FF2000F0F1
:1010B00097F83855641CE4B2AC42F7D30122802182
:1010C0004046FFF7D2F93046BDE8F0810004024007
:1010D00070B50A4D0446002280212846FFF7C5F965
:1010E000204600F07DF8FF2000F07AF80446012247
:1010F00080212846FFF7B9F9204670BD0004024060
:1011000070B505460720FFF7E3FF04460146272098
:1011100000F04AF860060AD5062229466120FFF74A
:10112000B3FFFF21E22000F03FF8002070BD012056
:1011300070BD000010B5094C2068016821F0400125
:1011400001600020206160612046FFF79BFC206861
:10115000016841F04001016010BD00001000002056
:101160002DE9F041DFF83C8016460D46044600228A
:1011700080214046FFF779F9204600F031F8074614
:10118000002405E015F8010B00F02AF8641CE4B215
:10119000B442F7D3012280214046FFF766F9384672
:1011A000BDE8F0810004024070B50B4D0E460446C8
:1011B000002280212846FFF758F9204600F010F859
:1011C0000446304600F00CF8012280212846FFF743
:1011D0004CF9204670BD000000040240704700003A
:1011E00001B582B04FF47A700090012301AA02A9E0
:1011F0000248FFF7BBFC9DF804000EBD1000002064
:1012000038B504461248134B0068B0FBF3F04FF4B6
:101210007A73584300906068B0F5827F0DD10B4619
:10122000009200228021204600F016F870B1606D17
:1012300040F020006065032038BD009830B1401EAA
:10124000009020688068C0430006F6D5002038BDB5
:101250000C00002000366E012DE9F0411D461746B6
:101260000E460446DDF8188008E0681C06D0FFF73B
:1012700001F9A0EB0800A8420BD255B120688068A4
:1012800036EA000030D00020B842EED10020BDE8A0
:10129000F0812068416821F0E00141606068B0F5AC
:1012A000827F0BD1A068B0F5004F02D0B0F5806FFF
:1012B00004D12068016821F040010160A06AB0F506
:1012C000005F09D12068016821F4005101602068A5
:1012D000016841F400510160012084F851000020B0
:1012E00084F850000320D2E70120CDE77047FFF7D4
:1012F000C7B8000030B593B030216846FEF798FFBC
:1013000014210CA8FEF794FF19480025016841F04C
:1013100080510160006800F080501190154801680C
:1013200041F4804101600068022400F48040119083
:101330000120039010200490009406940820CDE929
:101340000750A820CDE9090404200B906846FFF758
:101350000BFA0CA90F2081E831004FF4A0500F9038
:10136000E002109005210CA8FFF716F913B030BD6C
:1013700040380240007000401048016841F470019C
:1013800001600F48016841F0010101600C4A002131
:101390000832116002680B4B1A400260031D0A4AB2
:1013A0001A60026822F48022026005480C30016055
:1013B00002495806803908607047000088ED00E057
:1013C00000380240FFFFF6FE103000242DE9F04106
:1013D000044600680169E26821F44051114301614B
:1013E0002169A068E26908436169114322680843E2
:1013F000D16849F20C6399430143D1602068416987
:10140000A26921F4407111434161E2696425B2F59A
:10141000004F9748974922684FF032083FD08A42E0
:1014200001D082427CD1FFF75FF900EBC00101EBF4
:10143000001061688900B0FBF1F6FFF755F900EB89
:10144000C00101EB001061688900B0FBF1F0B0FB56
:10145000F5F06FF01801484306EB800108EB01102E
:10146000B0FBF5F000F0F006FFF73EF900EBC0012D
:1014700001EB001061688900B0FBF1F0B0FBF5F002
:1014800006EB0016FFF730F900EBC00101EB00108E
:1014900061688900B0FBF1F7FFF726F9D2E08A42D4
:1014A00001D082423DD1FFF71FF900EBC00101EBF3
:1014B000001061684900B0FBF1F0B0FBF5F00601E7
:1014C000FFF712F900EBC00101EB00106168490061
:1014D000B0FBF1F7FFF708F900EBC00101EB0010DA
:1014E00061684900B0FBF1F0B0FBF5F06FF0180156
:1014F000484307EB800108EBC100B0FBF5F000F0BA
:10150000F80006EB4006FFF7EFF800EBC00101EB37
:10151000001061684900B0FBF1F7FFF7E5F83CE027
:1015200055E0FFF7D1F800EBC00101EB0010616856
:101530004900B0FBF1F0B0FBF5F00601FFF7C4F88D
:1015400000EBC00101EB001061684900B0FBF1F74E
:10155000FFF7BAF800EBC00101EB00106168490029
:10156000B0FBF1F0B0FBF5F06FF01801484307EB6A
:10157000800108EBC100B0FBF5F000F0F80006EBCD
:101580004006FFF7A1F800EBC00101EB0010616815
:101590004900B0FBF1F7FFF797F800EBC00101EB52
:1015A000001061684900B0FBF1F0B0FBF5F06FF09E
:1015B0001801484307EB800108EBC100B0FBF5F0D0
:1015C00000F00700216830448860BDE8F081FFF733
:1015D0007BF800EBC00101EB001061688900B0FBF3
:1015E000F1F6FFF771F800EBC00101EB0010616844
:1015F0008900B0FBF1F0B0FBF5F06FF01801484343
:1016000006EB800108EB0110B0FBF5F000F0F006EE
:10161000FFF75AF800EBC00101EB00106168890088
:10162000B0FBF1F0B0FBF5F006EB0016FFF74CF85D
:1016300000EBC00101EB001061688900B0FBF1F71D
:10164000FFF742F800EBC00101EB00106168890070
:10165000B0FBF1F0B0FBF5F06FF01801484307EB79
:10166000800108EB0110B0FBF5F000F00F00A9E7D6
:101670000014014000100140FEE70907090E002890
:1016800004DB00F1E02080F80014704700F00F0048
:1016900000F1E02080F8141D704702E008C8121F16
:1016A00008C1002AFAD170477047002001E001C14B
:1016B000121F002AFBD1704786B00024FEF7E8FE17
:1016C000FFF718FEFFF7C0FBFFF720FCFFF742FC17
:1016D000FFF75EFCFFF7A4FC124D41F270766846FE
:1016E000FFF70EFD48B940212846FEF7B9FEA0B12C
:1016F000002240212846FEF7B8FE2046641CB04276
:10170000EDD3002480212846FEF7AAFE38B100223E
:1017100080212846FEF7A9FEE1E70122E9E7012240
:10172000F6E7000000000240AA5A7810010000000D
:101730000000000000010203040607080900000081
:1017400000010203040000006817000800000020E8
:10175000100000009A1600087817000810000020FA
:1017600098040000AA160008010000001000000004
:08177000000000000024F40059
:040000050800018965
:00000001FF
