:100382000A3D3D3D3D3D3D3D3D3D3D3D3D3D3D3DCE
:100392003D3D3D3D3D3D3D3D3D3D3D3D3D3D3D3D8B
:1003A2003D3D3D3D3D3D3D3D3D3D3D3D3D3D3D3D7B
:1003B2003D3D3D3D3D3D3D3D0A003D3D3D3D3D3DDB
:1003C2003D3D3D3D3D3D3D3D3D3D3D3D3D20206E64
:1003D200524632344C55314F5450205278205445B5
:1003E200535420203D3D3D3D3D3D3D3D3D3D3D3D48
:1003F2003D3D3D0A003D3D3D3D3D3D3D3D3D3D3D9B
:100402003D3D3D3D3D3D3D3D202020202020202002
:100412004E4F2041434B202020202020203D3D3DB7
:100422003D3D3D3D3D3D3D3D3D3D3D3D0A003D3D6A
:100432003D3D3D3D3D3D3D3D3D3D3D3D3D3D3D3DEA
:100442003D3D3D3D3D3D3D3D3D3D3D3D3D3D3D3DDA
:100452003D3D3D3D3D3D3D3D3D3D3D3D3D3D3D3DCA
:100462003D3D3D3D3D0A00537461727420746F201E
:10047200526563657669652E2E2E2E2E2E0A000A8F
:10048200526563656976656420446174613A0A0065
:100492003D3D3D3D3D3D3D3D3D3D3D3D3D3D3D3D8A
:1004A2003D3D3D3D20232564203D3D3D3D3D3D3DBF
:1004B2003D3D3D3D3D3D3D3D3D3D3D3D3D0A0025F2
:1004C2006420000A000A3D3D3D3D3D3D3D3D3D3D30
:1004D2003D3D3D3D3D3D3D3D3D3D3D3D3D3D3D3D4A
:1004E2003D3D3D3D3D3D3D3D3D3D3D3D3D3D3D3D3A
:0A04F2003D3D0A0A00AAAAAAAA00CA
:0A08B100017A00017B00C112C111A1
:1004FC00E4F525F5927594D2759506F5C9758001CC
:10050C00F5231200191207337BFF7A03798212004C
:10051C00887BFF7A0379BC1200887BFF7A0379F71A
:10052C001200887BFF7A0479301200887BFF7A04F2
:10053C0079691200885390FEE4FD7FE11208827BFA
:10054C00007A007911752A057FA8120800439001E2
:10055C00A2C1B340FBC2C17F071208A58F20300691
:10056C001B7B007A007911752A057F611207B6E5AD
:10057C00204440FD7F27120882752301E523B40136
:10058C00B4E4F5237BFF7A0479811200887BFF7A2F
:10059C0004799275290085112A1200887524017B33
:1005AC00FF7A0479C174112524F8E6752900F52A1F
:1005BC00120088E52475F00A84E5F070097BFF7A57
:1005CC000479C51200880524E524C3940540D07B2A
:0A05DC00FF7A0479C7120088A141DC
:1007E80075878075984075D88075AACC75BA03D27C
:0207F800AC2231
:030023000208319F
:10083100C0E0C0D075D00830991BC299797AE778A9
:100841007B66600F18E606543F243AF8E6F599C234
:0A085100128002C211D0D0D0E032B4
:10085B00201223201105D2118F9922C2AC787BE68E
:10086B0006543F243AF8A607797BE7787A66543F1B
:07087B007002D212D2AC2280
:10000300AE07BE0A082012FD7F0D12085B2012FD09
:06001300AF0612085B229B
:090019001208BC1207E8D2AF2264
:0708BC0075E610759006229D
:030894005390FD81
:0E0897008FE5C2C0A2C0B340FBC2C0AFE522D5
:02088200AE05C1
:0F088400120894AD07AF06120897439002AF0514
:010893002242
:0B08A500120894E4FF12089743900231
:0108B0002225
:0607B6008B278A28892927
:1007BC005390FD120897AE07E4FDEDC3952A501631
:1007CC00E4FF120897AB27AA28A9298D82F583EF9D
:0B07DC001206130D80E4439002AF06EC
:0107E70022EF
:060800008B278A288929DC
:100806005390FD120897AE07E4FDEDC3952A5015E7
:10081600AB27AA28A9298D827583001205E6FF1247
:0A08260008970D80E5439002AF062D
:0108300022A5
:100733005390FE7D2F7F201208827BFF7A0479F786
:10074300752A057F2A1208007D017F221208827D07
:10075300017F211208827D067F3D1208827D017F81
:100763003C1208827D7B7F251208827D057F311232
:0D07730008827D0E7F26120882439001222D
:10078000E4F51EF51DF51CF51BE47F887E13FDFCCA
:10079000AB1EAA1DA91CA81BC31206355017E51EC7
:1007A0002401F51EE4351DF51DE4351CF51CE4356A
:0507B0001BF51B80D4C5
:0107B5002221
:030000000206A74E
:0C06A700787FE4F6D8FD75817B0206EE3A
:1005E600BB010CE58229F582E5833AF583E02250CA
:1005F60006E92582F8E622BBFE06E92582F8E22214
:0D060600E58229F582E5833AF583E493222D
:10061300F8BB010DE58229F582E5833AF583E8F01D
:10062300225006E92582C8F622BBFE05E92582C8C9
:02063300F222B1
:10063500EB9FF5F0EA9E42F0E99D42F0E89C45F01B
:010645002292
:10002600E5352429F8E60535227826300F027829A9
:10003600E475F0011206710206462008EB7F2ED207
:10004600088018EF540F2490D43440D4FF300C0BA2
:10005600EF24BFB41A0050032461FFE53660021591
:10006600360539E53970020538300F0D7826E47506
:10007600F001120671EF02065F0200037403D20F4D
:100086008003E4C20FF5358B268A278928E4F536E6
:10009600F538F539E53660077F2012006180F57581
:1000A60037FFC209C208C20AC20BC20DC20EC21075
:1000B60012002FFF700D300F057F00120072AF394E
:1000C600AE3822B4255FC2D5C20C12002FFF24D051
:1000D600B40A00501A75F00A783630D50508B6FF0E
:1000E6000106C6A426F620D5047002D20B80D924B8
:1000F600CFB41A00EF5004C2E5D20C020272D20944
:1001060080C6D20880C0D20A80BCD2D580BAD20DB1
:1001160080B47F20120061200A077401B5360040C2
:10012600F1120026FF12006102009AD210D20E8050
:1001360095120026FB120026FA120026F94A4B7089
:100146000679437A037BFF200A2EE536602A7E0075
:100156008E827583001205E660060EEE653770F036
:10016600C2D5EBC0E0EAC0E0E9C0E0EE1202B9D0C9
:10017600E0F9D0E0FAD0E0FB120646FF60AAEBC039
:10018600E0EAC0E0E9C0E0120061D0E02401F9D065
:10019600E03400FAD0E0FBE5370460DCD537D980DF
:1001A600877BFF7A0279B5D20A809C791080027922
:1001B60008C20EC2108008D2D5790A8004790AC214
:1001C600D5E537047002F537E4FAFDFEFF12002686
:1001D600FC7B08200913120026FD7B1030080A124A
:1001E6000026FE120026FF7B20EC3382D592D550E6
:1001F60013C3E43008069FFFE49EFEE42009039D36
:10020600FDE49CFCE4CBF8C209EC700CCFCECDCC5F
:10021600E824F8F870F38017C3EF33FFEE33FEEDF2
:1002260033FDEC33FCEB33FB994002FB0FD8E9EBD3
:10023600300905F8D0E0C448B209C0E00AEC4D4EDA
:100246004F78207B0070C2EAB5370040BCC0E01290
:1002560002BBD0F0D0E0200904C4C0E0C4B209C09B
:10026600F012004AD0F0D5F0EB02009A1206810196
:10027600375301B15801084C01044201B54F01BD85
:0F0286004401BD49011D4301C35501A74601A70E
:100295004501A747036350010C2D01102E01332B97
:1002A500011423013120034C2A00CC480000012B06
:1002B5003F3F3F00790AA2D5200B14300D09B91034
:1002C500020404B9080104A2D5200E02500104203D
:1002D5000A68920AB536005034C0E07F20300B1909
:1002E5007F30A20A720E720D500F120312C20AC29B
:1002F5000EC20DC2107F30800F300D03E9C0E01231
:100305000061300D03D0E0F9D0E0B536CC300D17E3
:100315007F30B9100C1200617F58300C077F788050
:1003250003B90803120061300A057F2D0200617FC1
:10033500202010F87F2B200EF322920A80CF286E02
:10034500756C6C2900D2091200263009F8C20978AB
:100355003630D50108F60200CC2D5043495812001D
:10036500262403B405004001E490035E9312005275
:0D037500743A120052D20B7536040201B129
:1006B3000204FCE493A3F8E493A34003F68001F25D
:1006C30008DFF48029E493A3F85407240CC8C33348
:1006D300C4540F4420C8834004F456800146F6DF17
:1006E300E4800B01020408102040809008B1E47EEE
:1006F300019360BCA3FF543F30E509541FFEE4930C
:10070300A360010ECF54C025E060A840B8E493A3D2
:10071300FAE493A3F8E493A3C8C582C8CAC583CAFD
:10072300F0A3C8C582C8CAC583CADFE9DEE780BEB5
:0108BB00003C
:10064600BB010689828A83E0225002E722BBFE02B2
:09065600E32289828A83E49322E5
:10065F00BB010689828A83F0225002F722BBFE017A
:02066F00F32274
:10067100FAE6FB0808E6F925F0F618E6CA3AF6228A
:10068100D083D082F8E4937012740193700DA3A308
:1006910093F8740193F5828883E47374029368601C
:0606A100EFA3A3A380DF1C
:00000001FF
