:100382000A3D3D3D3D3D3D3D3D3D3D3D3D3D3D3DCE
:100392003D3D3D3D3D3D3D3D3D3D3D3D3D3D3D3D8B
:1003A2003D3D3D3D3D3D3D3D3D3D3D3D3D3D3D3D7B
:1003B2003D3D3D3D3D3D3D3D0A003D3D3D3D3D3DDB
:1003C2003D3D3D3D3D3D3D3D3D3D3D3D3D20206E64
:1003D200524632344C55314F5450205278205445B5
:1003E200535420203D3D3D3D3D3D3D3D3D3D3D3D48
:1003F2003D3D3D0A003D3D3D3D3D3D3D3D3D3D3D9B
:100402003D3D3D3D3D3D3D3D202020202020202002
:100412004E4F2041434B202020202020203D3D3DB7
:100422003D3D3D3D3D3D3D3D3D3D3D3D0A003D3D6A
:100432003D3D3D3D3D3D3D3D3D3D3D3D3D3D3D3DEA
:100442003D3D3D3D3D3D3D3D3D3D3D3D3D3D3D3DDA
:100452003D3D3D3D3D3D3D3D3D3D3D3D3D3D3D3DCA
:100462003D3D3D3D3D0A00537461727420746F201E
:10047200526563657669652E2E2E2E2E2E0A000A8F
:10048200526563656976656420446174613A0A0065
:100492003D3D3D3D3D3D3D3D3D3D3D3D3D3D3D3D8A
:1004A2003D3D3D3D20232564203D3D3D3D3D3D3DBF
:1004B2003D3D3D3D3D3D3D3D3D3D3D3D3D0A0025F2
:1004C2006420000A000A3D3D3D3D3D3D3D3D3D3D30
:1004D2003D3D3D3D3D3D3D3D3D3D3D3D3D3D3D3D4A
:1004E2003D3D3D3D3D3D3D3D3D3D3D3D3D3D3D3D3A
:0F04F2003D3D0A0A002578200A00AAAAAAAA00FE
:0A08A50001BA0001BB00C112C1112D
:10050100E4F5927594F27595C6F5C975A3307580B9
:1005110001F564120019E4F56574242565F8E4F623
:100521000565E565B420F27BFF7A037982120088C4
:100531007BFF7A0379BC1200887BFF7A0379F7127B
:1005410000887BFF7A0479301200887BFF7A047976
:100551006912008812072DA2C1B340FB7F07120761
:10056100F48F2030061B7B007A007924756A207F86
:10057100611207B0E5204440FD7F271208827564AF
:1005810001E564B401D1E4F5647BFF7A0479811259
:1005910000887BFF7A04799275690085246A1200CC
:1005A100887565017BFF7A0479C174242565F8E6B5
:1005B100756900F56A120088E56575F00A84E5F051
:1005C10070097BFF7A0479C51200880565E565C36A
:0F05D100942040D07BFF7A0479C7120088A1588C
:1007E20075878075984075D88075AAF375BA03D25B
:0207F200AC2237
:030023000208319F
:10083100C0E0C0D075D00830991BC29979BAE77869
:10084100BB66600F18E606543F247AF8E6F599C2B4
:0A085100128002C211D0D0D0E032B4
:10085B00201223201105D2118F9922C2AC78BBE64E
:10086B0006543F247AF8A60779BBE778BA66543F5B
:07087B007002D212D2AC2280
:10000300AE07BE0A082012FD7F0D12085B2012FD09
:06001300AF0612085B229B
:090019001208B01207E2D2AF2276
:0708B00075E61575900622A4
:030894005390FD81
:0E0897008FE5C2C0A2C0B340FBC2C0AFE522D5
:02088200AE05C1
:0F088400120894AD07AF06120897439002AF0514
:010893002242
:0B07F400120894E4FF120897439002E3
:0107FF0022D7
:0607B0008B678A6889696D
:1007B6005390FD120897AE07E4FDEDC3956A5016F7
:1007C600E4FF120897AB67AA68A9698D82F583EFE3
:0B07D60012060D0D80E4439002AF06F8
:0107E10022F5
:060800008B678A6889691C
:100806005390FD120897AE07E4FDEDC3956A5015A7
:10081600AB67AA68A9698D827583001205E0FF128D
:0A08260008970D80E5439002AF062D
:0108300022A5
:10072D005390FE7BFF7A0479FC756A057F2A1208C7
:10073D00007D017F221208827F011207F48F237B37
:10074D00FF7A0479F77569008F6A1200887D407F02
:10075D00251208827D207F311208827D267F261288
:0D076D0008827D2F7F201208824390012218
:10077A00E4F513F512F511F510E47F887E13FDFCFC
:10078A00AB13AA12A911A810C312062F5017E5130A
:10079A002401F513E43512F512E43511F511E435A7
:0507AA0010F51080D4E1
:0107AF002227
:030000000206A154
:0C06A100787FE4F6D8FD7581BB0206E806
:1005E000BB010CE58229F582E5833AF583E02250D0
:1005F00006E92582F8E622BBFE06E92582F8E2221A
:0D060000E58229F582E5833AF583E4932233
:10060D00F8BB010DE58229F582E5833AF583E8F023
:10061D00225006E92582C8F622BBFE05E92582C8CF
:02062D00F222B7
:10062F00EB9FF5F0EA9E42F0E99D42F0E89C45F021
:01063F002298
:10002600E5752469F8E60575227866300F02786969
:10003600E475F00112066B0206402008EB7F2ED213
:10004600088018EF540F2490D43440D4FF300C0BA2
:10005600EF24BFB41A0050032461FFE57660021551
:10006600760579E57970020578300F0D7866E475C6
:10007600F00112066BEF0206590200037403D20F59
:100086008003E4C20FF5758B668A678968E4F576A6
:10009600F578F579E57660077F2012006180F575C1
:1000A60077FFC209C208C20AC20BC20DC20EC21035
:1000B60012002FFF700D300F057F00120072AF790E
:1000C600AE7822B4255FC2D5C20C12002FFF24D011
:1000D600B40A00501A75F00A787630D50508B6FFCE
:1000E6000106C6A426F620D5047002D20B80D924B8
:1000F600CFB41A00EF5004C2E5D20C020272D20944
:1001060080C6D20880C0D20A80BCD2D580BAD20DB1
:1001160080B47F20120061200A077401B576004082
:10012600F1120026FF12006102009AD210D20E8050
:1001360095120026FB120026FA120026F94A4B7089
:100146000679437A037BFF200A2EE576602A7E0035
:100156008E827583001205E060060EEE657770F0FC
:10016600C2D5EBC0E0EAC0E0E9C0E0EE1202B9D0C9
:10017600E0F9D0E0FAD0E0FB120640FF60AAEBC03F
:10018600E0EAC0E0E9C0E0120061D0E02401F9D065
:10019600E03400FAD0E0FBE5770460DCD577D9805F
:1001A600877BFF7A0279B5D20A809C791080027922
:1001B60008C20EC2108008D2D5790A8004790AC214
:1001C600D5E577047002F577E4FAFDFEFF12002606
:1001D600FC7B08200913120026FD7B1030080A124A
:1001E6000026FE120026FF7B20EC3382D592D550E6
:1001F60013C3E43008069FFFE49EFEE42009039D36
:10020600FDE49CFCE4CBF8C209EC700CCFCECDCC5F
:10021600E824F8F870F38017C3EF33FFEE33FEEDF2
:1002260033FDEC33FCEB33FB994002FB0FD8E9EBD3
:10023600300905F8D0E0C448B209C0E00AEC4D4EDA
:100246004F78207B0070C2EAB5770040BCC0E01250
:1002560002BBD0F0D0E0200904C4C0E0C4B209C09B
:10026600F012004AD0F0D5F0EB02009A12067B019C
:10027600375301B15801084C01044201B54F01BD85
:0F0286004401BD49011D4301C35501A74601A70E
:100295004501A747036350010C2D01102E01332B97
:1002A500011423013120034C2A00CC480000012B06
:1002B5003F3F3F00790AA2D5200B14300D09B91034
:1002C500020404B9080104A2D5200E02500104203D
:1002D5000A68920AB576005034C0E07F20300B19C9
:1002E5007F30A20A720E720D500F120312C20AC29B
:1002F5000EC20DC2107F30800F300D03E9C0E01231
:100305000061300D03D0E0F9D0E0B576CC300D17A3
:100315007F30B9100C1200617F58300C077F788050
:1003250003B90803120061300A057F2D0200617FC1
:10033500202010F87F2B200EF322920A80CF286E02
:10034500756C6C2900D2091200263009F8C20978AB
:100355007630D50108F60200CC2D504349581200DD
:10036500262403B405004001E490035E9312005275
:0D037500743A120052D20B7576040201B1E9
:1006AD00020501E493A3F8E493A34003F68001F25D
:1006BD0008DFF48029E493A3F85407240CC8C3334E
:1006CD00C4540F4420C8834004F456800146F6DF1D
:1006DD00E4800B01020408102040809008A5E47E00
:1006ED00019360BCA3FF543F30E509541FFEE49312
:1006FD00A360010ECF54C025E060A840B8E493A3D9
:10070D00FAE493A3F8E493A3C8C582C8CAC583CA03
:10071D00F0A3C8C582C8CAC583CADFE9DEE780BEBB
:0108AF000048
:10064000BB010689828A83E0225002E722BBFE02B8
:09065000E32289828A83E49322EB
:10065900BB010689828A83F0225002F722BBFE0180
:02066900F3227A
:10066B00FAE6FB0808E6F925F0F618E6CA3AF62290
:10067B00D083D082F8E4937012740193700DA3A30E
:10068B0093F8740193F5828883E473740293686022
:06069B00EFA3A3A380DF22
:00000001FF
